:1000000029C042C041C040C03FC03EC03DC06BC4DB
:100010003BC03AC039C038C037C036C035C034C024
:1000200033C032C031C030C02FC08CC42DC02CC0F2
:1000300041C72AC0EAC6D5C6C0C6ABC696C681C6E9
:100040006CC657C642C62DC618C603C6EEC5D9C56E
:10005000C2C5ABC511241FBECFEFD2E0DEBFCDBFFE
:1000600011E0A0E0B1E0EEE8FFE002C005900D92E3
:10007000A230B107D9F711E0A2E0B1E001C01D92B2
:10008000A032B107E1F7F5C1BBCF18B82EEF27B901
:100090001BB81AB81092B60016BC1DBA80E880BF13
:1000A000089540E050E0009721F09C01215030403D
:1000B000E9F74F5F5F4F2FEF4F3F5207A1F70895CA
:1000C000089567E0862FF8D120E030E08EE290E0DE
:1000D000019797FFFDCF2F5F3F4F8FEF2F3F3807DF
:1000E000A9F766E0862FE8D120E030E08EE290E0CC
:1000F000019797FFFDCF2F5F3F4F8FEF2F3F3807BF
:10010000A9F765E0862FD8D120E030E08EE290E0BC
:10011000019797FFFDCF2F5F3F4F8FEF2F3F38079E
:10012000A9F764E0862FC8D120E030E08EE290E0AD
:10013000019797FFFDCF2F5F3F4F8FEF2F3F38077E
:10014000A9F761E0862FB8D120E030E08EE290E0A0
:10015000019797FFFDCF2F5F3F4F8FEF2F3F38075E
:10016000A9F762E0862FA8D120E030E08EE290E08F
:10017000019797FFFDCF2F5F3F4F8FEF2F3F38073E
:10018000A9F763E0862F98D120E030E08EE290E07E
:10019000019797FFFDCF2F5F3F4F8FEF2F3F38071E
:1001A000A9F78FCF63E087E087D120E030E08EE2CF
:1001B00090E0019797FFFDCF2F5F3F4F8FEF2F3FCD
:1001C0003807A9F767E083E077D120E030E08EE2DE
:1001D00090E0019797FFFDCF2F5F3F4F8FEF2F3FAD
:1001E0003807A9F7DFCF80910801909109013FD628
:1001F00080E2BBD480910A0190910B0138D680E255
:10020000B4D4809112019091130131D680E2ADD423
:1002100080910C0190910D012AD68AE0A6D48DE040
:10022000A4D40895809108019091090120D680E21C
:100230009CD480910A0190910B0119D680E295D44B
:10024000809112019091130112D680E28ED4809198
:100250000C0190910D010BD68AE087D48DE085D4F6
:10026000089578D267E0862F27D160910A017091B6
:100270000B0140910801509109016417750750F571
:1002800020910C0130910D01809112019091130188
:1002900028173907F8F48091080190910901E7D5F2
:1002A00080E263D480910A0190910B01E0D580E255
:1002B0005CD48091120190911301D9D580E255D47C
:1002C00080910C0190910D01D2D58AE04ED48DE041
:1002D0004CD4CBCF1092050161E0862FEDD01EC02B
:1002E0008091080190910901C2D580E23ED48091AD
:1002F0000A0190910B01BBD580E237D480911201A5
:1003000090911301B4D580E230D480910C0190918A
:100310000D01ADD58AE029D48DE027D4E0910A0102
:10032000F0910B01A0910801B0910901EA17FB07B8
:10033000B8F620910C0130910D018091120190913D
:1003400013012817390760F663E0862FB5D020E047
:1003500030E08EE190E0019797FFFDCF2F5F3F4F98
:100360008FEF2F3F3807A9F767E083E0A5D020E0A3
:1003700030E08DE090E0019797FFFDCF2F5F3F4F7A
:100380008FEF2F3F3807A9F76DCFDFD388E4EDD388
:1003900085E4EBD38CE4E9D38CE4E7D38FE4E5D3B5
:1003A00080E2E3D38DE4E1D38FE4DFD384E5DDD3D2
:1003B00085E4DBD38AE0D9D38DE0D7D3E7CFCAD1A8
:1003C000809108019091090152D580E2CED38091AD
:1003D0000A0190910B014BD580E2C7D380911201A5
:1003E0009091130144D580E2C0D380910C0190918B
:1003F0000D013DD58AE0B9D38DE0B7D3E1CF5B9A4B
:1004000020E030E08EE290E0019797FFFDCF2F5F74
:100410003F4F8FEF2F3F3807A9F75B9820E030E080
:100420008EE290E0019797FFFDCF2F5F3F4F8FEF58
:100430002F3F3807A9F75B9A20E030E08EE290E08A
:10044000019797FFFDCF2F5F3F4F8FEF2F3F38076B
:10045000A9F75B9820E030E08EE290E0019797FFEB
:10046000FDCF2F5F3F4F8FEF2F3F3807A9F75B9AE4
:100470000895CFEFD2E0DEBFCDBF18B82EEF27B979
:100480001BB81AB81092B60016BC1DBA80E880BF1F
:1004900008D05BD3F0D0239A2B9878943B9AFDD167
:1004A000FFCF559A569A209A219A24B52D7F24BDC4
:1004B00084B5816084BD089599278430910561F1E8
:1004C00085309105E4F48230910509F469C08330E8
:1004D00091050CF05FC0019709F477C084B58F7760
:1004E00084BD5E9877276430710511F52A9A80EAF9
:1004F00088BD64B5606264BD55E055BD0895863021
:10050000910509F450C0863091050CF446C0079758
:1005100029F729988FEF02C0299880EA87BD34B562
:10052000306834BD25E025BD772764307105F1F2D0
:100530006530710564F46230710509F440C06330C0
:100540007105FCF46130710559F42A98D0CF6630FA
:10055000710561F1663071055CF06730710591F1EC
:1005600044B54F7D44BD04B407FE15BC5E980895A4
:100570002A9A8EEB88BD64B5606264BD55E055BDB6
:1005800008952A988FEF88BD64B5606264BD55E018
:1005900055BD0895299A8FEFC1CF29988EEBBECF14
:1005A000299A87EDBBCF299887EDB8CF2A9A87ED96
:1005B00088BD64B5606264BD55E055BD08952A9854
:1005C00087EDF6CF2A9A8FEFDECF299AA6CF682F34
:1005D000807C09F00895862F9927887390709595EF
:1005E00087959595879595958795677065DF0895AB
:1005F0000895419A399A3B9A579A3A9A109206016D
:1006000008954198419A0895982F27E002C05F9875
:1006100006C04398892F80788038C9F75F9A990F70
:10062000439A215027FFF5CF08954198419A429867
:100630009091060127E006C05F98990F439A2150D8
:1006400027FD0BC04398892F80788038A9F75F9ADF
:10065000990F439A215027FFF5CF4398429A089566
:1006600008950895089582E28093B000089582E18C
:100670008093B00008955B985091B6005F7D5093D1
:10068000B60042E14093B00031E03093B10022E681
:100690002093B30082E08093700087B3539A08954B
:1006A00010920401409836E430937C002EE62093AB
:1006B0007A0010927B0081E080937E0010920E0100
:1006C00010920F011092100110921101109214015A
:1006D000109215011092160110921701089521E051
:1006E0002093040110920E0110920F01109210013C
:1006F000109211011092140110921501109216011E
:100700001092170110920B0110920A0110920D0124
:1007100010920C01109202018EEE80937A000895DF
:1007200080910601877E809306017FDF08952091E6
:100730000601277E2093060178DF109204018EE2E5
:1007400080937A0008958091060188658093060160
:100750006CDF08953091060138653093060165DF3E
:1007600021E02093040110920E0110920F011092CB
:1007700010011092110110921401109215011092A3
:1007800016011092170110920B0110920A0110929B
:100790000D0110920C01109202018EEE80937A00EE
:1007A000089520910601206520930601809106019D
:1007B000877F8093060139DF0895409106014065E7
:1007C0004093060130910601377F309306012DDFFB
:1007D00021E02093040110920E0110920F0110925B
:1007E0001001109211011092140110921501109233
:1007F00016011092170110920B0110920A0110922B
:100800000D0110920C01109202018EEE80937A007D
:100810000895209106012864209306018091060125
:100820008F7E8093060101DF0895409106014864A0
:1008300040930601309106013F7E30930601F5DEBC
:1008400021E02093040110920E0110920F011092EA
:1008500010011092110110921401109215011092C2
:1008600016011092170110920B0110920A011092BA
:100870000D0110920C01109202018EEE80937A000D
:1008800008952091060122642093060180910601BB
:100890008A7F80930601C9DE0895209106012464B1
:1008A00020930601809106018C7F80930601BDDEB6
:1008B000089580910601866480930601B6DE08954E
:1008C0002091060121642093060180910601897F11
:1008D00080930601AADE089580910601887F8093A7
:1008E0000601A3DE08951F920F920FB60F921124F6
:1008F0002F933F934F938F939F93209103012F5FEB
:10090000209303019091030180910001981769F0F1
:1009100030910301303560F0109203014AE04093BA
:10092000000182E18093B00003C082E28093B000B6
:100930009F918F914F913F912F910F900FBE0F90EC
:100940001F9018951F920F920FB60F9211242F939C
:100950003F934F935F936F938F939F93AF93BF9307
:1009600060910401653009F440C06230F1F16630F5
:1009700009F16430F9F0309102013F5F30930201D8
:1009800080910201883008F4D2C0109202016530D3
:1009900009F44AC0663009F469C0613009F440C006
:1009A000633009F485C0623009F4A3C0643009F0F3
:1009B000BEC082C08091780090917900AA27BB27A1
:1009C00020911401309115014091160150911701A9
:1009D000820F931FA41FB51F8093140190931501DC
:1009E000A0931601B0931701C6CF80917800909123
:1009F0007900AA27BB2720910E0130910F01409169
:100A0000100150911101820F931FA41FB51F8093F5
:100A10000E0190930F01A0931001B0931101ABCF81
:100A200082E08093040183C080910E0190910F01B8
:100A3000A0911001B091110153E0B695A79597953B
:100A400087955A95D1F790930B0180930A011092E4
:100A50000E0110920F01109210011092110186E008
:100A60008093040187E480937C0061C0809114012D
:100A700090911501A0911601B091170143E0B69530
:100A8000A795979587954A95D1F790930D018093F7
:100A90000C0110921401109215011092160110927F
:100AA000170145E04093040186E480937C003FC039
:100AB00084E0809304013BC0809114019091150162
:100AC000A0911601B091170123E0B695A7959795CF
:100AD00087952A95D1F7049790931301809312017B
:100AE00010920E0110920F0110921001109211013C
:100AF000D8CF80910E0190910F01A0911001B0917B
:100B0000110133E0B695A795979587953A95D1F75A
:100B10000497909309018093080110920E0110929E
:100B20000F01109210011092110183E099CFBF9133
:100B3000AF919F918F916F915F914F913F912F91C5
:100B40000F900FBE0F901F90189542E04093C00089
:100B500038E13093C10026E02093C2001092C50016
:100B600089E18093C400519A0895482F21E030E034
:100B70008091C000992796958795929582958F7060
:100B800089279F708927817090708217930781F75A
:100B90004093C60008959927AA27BB278031910565
:100BA000C8F4FC01E65EFF4F099421E030E080913B
:100BB000C000992796958795929582958F70892781
:100BC0009F708927817090708217930781F786E460
:100BD0008093C600089521E030E08091C0009927FD
:100BE00096958795929582958F7089279F70892712
:100BF000817090708217930781F785E48093C60017
:100C0000089521E030E08091C0009927969587955E
:100C1000929582958F7089279F7089278170907037
:100C20008217930781F784E4E9CF21E030E08091D7
:100C3000C000992796958795929582958F70892700
:100C40009F708927817090708217930781F783E4E2
:100C5000D5CF21E030E08091C00099279695879507
:100C6000929582958F7089279F70892781709070E7
:100C70008217930781F782E4C1CF21E030E08091B1
:100C8000C000992796958795929582958F708927B0
:100C90009F708927817090708217930781F781E494
:100CA000ADCF21E030E08091C000992796958795DF
:100CB000929582958F7089279F7089278170907097
:100CC0008217930781F789E399CF21E030E0809183
:100CD000C000992796958795929582958F70892760
:100CE0009F708927817090708217930781F788E33E
:100CF00085CF21E030E08091C000992796958795B7
:100D0000929582958F7089279F7089278170907046
:100D10008217930781F787E371CF21E030E080915C
:100D2000C000992796958795929582958F7089270F
:100D30009F708927817090708217930781F786E3EF
:100D40005DCF21E030E08091C0009927969587958E
:100D5000929582958F7089279F70892781709070F6
:100D60008217930781F785E349CF21E030E0809136
:100D7000C000992796958795929582958F708927BF
:100D80009F708927817090708217930781F784E3A1
:100D900035CF21E030E08091C00099279695879566
:100DA000929582958F7089279F70892781709070A6
:100DB0008217930781F783E321CF21E030E0809110
:100DC000C000992796958795929582958F7089276F
:100DD0009F708927817090708217930781F782E353
:100DE0000DCF21E030E08091C0009927969587953E
:100DF000929582958F7089279F7089278170907056
:100E00008217930781F781E3F9CE21E030E08091EA
:100E1000C000992796958795929582958F7089271E
:100E20009F708927817090708217930781F780E304
:100E3000E5CE1F93182F82958F70ADDE812F8F70B6
:100E4000AADE1F9108950F931F93182F062F8295E6
:100E50008F70A1DE812F8F709EDE802F82958F7024
:100E60009ADE802F8F7097DE1F910F910895EF9279
:100E7000FF921F937C01892F9927F82E82958F70FE
:100E80008ADE8F2D8F7087DE8E2D82958F7083DEA8
:100E90008E2D8F7080DE1F91FF90EF90089525E4D6
:100EA0002093BC0085E58093BA001092BD00449A5F
:100EB000459A08951F920F920FB60F9211242F9307
:100EC0003F934F935F936F937F938F939F93AF93D2
:100ED000BF93EF93FF932B9A82E547DE8091B90091
:100EE000A8DF8AE042DE8DE040DE8091B9008036E6
:100EF00099F02091B900203779F03091B900383855
:100F000031F04091B900483911F085EC06C050919C
:100F1000BB0050930501F9CF85E88093BC00FF9199
:100F2000EF91BF91AF919F918F917F916F915F9161
:100F30004F913F912F910F900FBE0F901F901895DA
:100F40002C982D98249A259A5298E8E1F1E087E0B0
:100F50001192815087FFFCCF0895EFE1F1E097E017
:100F600089B180832D9A2D989150319797FFF8CFB2
:100F700008952C9AEFE1F1E097E089B180832D9AF2
:0E0F80002D989150319797FFF8CF2C98089537
:020F8E0032002F
:00000001FF
