:1000000029C042C041C040C03FC03EC03DC067C3E0
:100010003BC03AC039C038C037C036C035C034C024
:1000200033C032C031C030C02FC02EC02DC02CC054
:100030005AC52AC003C5EEC4D9C4C4C4AFC49AC447
:1000400085C470C45BC446C431C41CC407C4F2C3B5
:10005000DBC3C4C311241FBECFEFD2E0DEBFCDBFD0
:1000600011E0A0E0B1E0E0ECFBE002C005900D92F1
:10007000AE31B107D9F711E0AEE1B1E001C01D9298
:10008000A835B107E1F721C0BBCF18B82EEF27B9CB
:100090001BB81AB81092B60016BC1DBA80E880BF13
:1000A000089540E050E0009721F09C01215030403D
:1000B000E9F74F5F5F4F2FEF4F3F5207A1F70895CA
:1000C000982F8FEF84B995B90895CEEFD2E0DEBFB7
:1000D000CDBF18B83EEF37B91BB81AB81092B600AA
:1000E00016BC1DBA20E820BF44D3F8943D9A3B9833
:1000F00023D18FEF84B985B94CD11982459A61D14A
:1001000059815F5F598380E0DBD181E0D9D182E002
:10011000D7D183E0D5D184E0D3D185E0D1D186E0B9
:10012000CFD14981413039F0459865B36530E9F365
:1001300072E075BBE3CF1982A3D1F6CF559A569AD8
:10014000209A219A24B52D7F24BD84B5816084BD79
:10015000089599278430910561F185309105E4F483
:100160008230910509F469C0833091050CF05FC0BD
:10017000019709F477C084B58F7784BD5E9877279F
:100180006430710511F5299A80EA88BD64B5606212
:1001900064BD55E055BD08958630910509F450C001
:1001A000863091050CF446C0079729F728988FEF01
:1001B00002C0289880EA87BD34B5306834BD25E098
:1001C00025BD772764307105F1F26530710564F45F
:1001D0006230710509F440C063307105FCF4613090
:1001E000710559F42998D0CF6630710561F16630F8
:1001F00071055CF06730710591F144B54F7D44BDE8
:1002000004B407FE15BC5E980895299A8EEB88BD4C
:1002100064B5606264BD55E055BD089529988FEFBF
:1002200088BD64B5606264BD55E055BD0895289AE7
:100230008FEFC1CF28988EEBBECF289A87EDBBCF2A
:10024000289887EDB8CF299A87ED88BD64B560629C
:1002500064BD55E055BD0895299887EDF6CF299ADC
:100260008FEFDECF289AA6CF682F807C09F0089503
:10027000862F992788739070959587959595879582
:1002800095958795677065DF08950895419A399A25
:100290003B9A579A3A9A10923E010895419800006D
:1002A000000000000000419A0895982F27E002C046
:1002B0005F9806C04398892F80788038C9F75F9A85
:1002C000990F439A0000000000000000215027FF12
:1002D000F1CF089541980000000000000000419A0D
:1002E000429890913E0127E00AC05F98990F439A87
:1002F0000000000000000000215027FD07C04398C7
:10030000892F8078803889F75F9AF0CF000000004D
:100310000000000043980000000000000000429A26
:100320000895662321F0FC0141936150E9F7089597
:100330003399FECF089508953CE837BD18BC2FEFE0
:1003400026BD82E084BD85BD089515BC089582E276
:100350008093B000089582E18093B00008955B9887
:100360005091B6005F7D5093B60042E14093B000DB
:1003700031E03093B10022E62093B30082E0809315
:10038000700087B3539A08950895089508950895C5
:100390000895E8E2F1E086E01192815087FFFCCFFA
:1003A000EFE2F1E086E01192815087FFFCCFE1E2BD
:1003B000F1E086E01192815087FFFCCF109220017E
:1003C0000895309903C010921F0108958FEF809314
:1003D0001F01089508958430C8F4E82FFF27DF0136
:1003E000A15DBE4F8C918823D1F531E03C93EE0F97
:1003F000FF1FEE0FFF1FE60FF11DE050FF4F209192
:1004000021019081292B209321010895E82FFF27B6
:10041000DF01A15DBE4F7C91772389F481E08C934D
:10042000EE0FFF1FEE0FFF1FE60FF11DE050FF4F15
:1004300060912201A0816A2B6093220108951C9291
:10044000EE0FFF1FEE0FFF1FE60FF11DE050FF4FF5
:10045000B09124012081B22BB093240108951C9205
:10046000EE0FFF1FEE0FFF1FE60FF11DE050FF4FD5
:10047000409123015081452B409323010895089515
:10048000CF93C0912001CC2371F4CF5FC0932001A2
:10049000C15060912201809121017BD1C093210143
:1004A000C09322010BC01092200160912401809121
:1004B00023016FD11092230110922401CF9108954E
:1004C0001F93CF93DF93182FC82FDD2781E090E093
:1004D0000C2E02C0880F991F0A94E2F720911F0189
:1004E0002823FE01E85DFE4F808199278130910528
:1004F00051F0823091050CF441C0029781F0C85D43
:10050000DE4F1882E8C02223B1F1FE01EA5CFE4F03
:1005100080818F3F09F4DFC08F5F8083DCC0FE01E4
:10052000EA5CFE4FE0818E2F8450823098F15E2F7E
:100530005650523008F443C0E250E23000F784E0F5
:10054000BFDD143008F093C0FE01E15DFE4F9081E5
:10055000992309F0AEC0A1E0A083FE01EE0FFF1FBA
:10056000EE0FFF1FED5FFE4FB09121018081B82B90
:10057000B0932101C4CF82E08083ADC0892B09F004
:10058000BECF222309F4A7C0CA5CDE4F81E0888376
:100590008083A1C081E094DD143030F5FE01E15D7F
:1005A000FE4F1081112309F044C021E02083FE0199
:1005B000EE0FFF1FEE0FFF1FEE5FFE4FD5CF82E065
:1005C0007FDD91E0143030F5FE01E15DFE4F60818A
:1005D000662309F065C09083FE01EE0FFF1FEE0F4A
:1005E000FF1FEF5FFE4FC0CFFE01E15DFE4F308188
:1005F000332371F541E04083FE01EE0FFF1FEE0F44
:10060000FF1FEE5FFE4F509122016081562B5093E9
:10061000220175CFFE01E15DFE4F70817723B9F5B0
:100620009083FE01EE0FFF1FEE0FFF1FEF5FFE4FE7
:10063000EACF1082FE01EE0FFF1FEE0FFF1FEE5FED
:10064000FE4F109123012081122B1093230157CFCD
:100650001082FE01EE0FFF1FEE0FFF1FEE5FFE4F39
:10066000709124019081792B7093240148CFFE0171
:10067000E15DFE4F3081332329F541E04083FE01E7
:10068000EE0FFF1FEE0FFF1FED5FFE4FBCCF10827E
:10069000FE01EE0FFF1FEE0FFF1FEF5FFE4FE0CFDB
:1006A0001082FE01EE0FFF1FEE0FFF1FEF5FFE4FE8
:1006B000C8CF1082FE01EE0FFF1FEE0FFF1FED5F90
:1006C000FE4FBFCF1082FE01EE0FFF1FEE0FFF1F88
:1006D000ED5FFE4FC5CFDF91CF911F9108951F921F
:1006E0000F920FB60F9211242F933F934F935F9366
:1006F0006F938F939F9320911E012F5F20931E0174
:1007000090911E0180911C019817B1F030911E014B
:10071000303518F110921E0140911C014233C9F08E
:1007200050911C01583261F060911C016E3169F0EA
:1007300082E18093B00011C082E28093B0000DC0CE
:100740008EE180931C0182E1F4CF82E380931C014F
:10075000FACF88E280931C01F6CF9F918F916F9121
:100760005F914F913F912F910F900FBE0F901F906F
:1007700018951092C00036E43093C2001092C50064
:1007800023E02093C400519A549A88E08093C100DA
:1007900008958093C6006093C6000895482F21E015
:1007A00030E08091C0009927969587959295829523
:1007B0008F7089279F7089278170907082179307A7
:1007C00081F74093C60008959927AA27BB27803157
:1007D0009105C8F4FC01E65EFF4F099421E030E08A
:1007E0008091C000992796958795929582958F70F4
:1007F00089279F708927817090708217930781F7EE
:1008000086E48093C600089521E030E08091C00026
:10081000992796958795929582958F7089279F70D5
:100820008927817090708217930781F785E4809300
:10083000C600089521E030E08091C0009927969588
:100840008795929582958F7089279F7089278170EF
:1008500090708217930781F784E4E9CF21E030E0BC
:100860008091C000992796958795929582958F7073
:1008700089279F708927817090708217930781F76D
:1008800083E4D5CF21E030E08091C0009927969590
:100890008795929582958F7089279F70892781709F
:1008A00090708217930781F782E4C1CF21E030E096
:1008B0008091C000992796958795929582958F7023
:1008C00089279F708927817090708217930781F71D
:1008D00081E4ADCF21E030E08091C000992796956A
:1008E0008795929582958F7089279F70892781704F
:1008F00090708217930781F789E399CF21E030E068
:100900008091C000992796958795929582958F70D2
:1009100089279F708927817090708217930781F7CC
:1009200088E385CF21E030E08091C000992796953B
:100930008795929582958F7089279F7089278170FE
:1009400090708217930781F787E371CF21E030E041
:100950008091C000992796958795929582958F7082
:1009600089279F708927817090708217930781F77C
:1009700086E35DCF21E030E08091C0009927969515
:100980008795929582958F7089279F7089278170AE
:1009900090708217930781F785E349CF21E030E01B
:1009A0008091C000992796958795929582958F7032
:1009B00089279F708927817090708217930781F72C
:1009C00084E335CF21E030E08091C00099279695EF
:1009D0008795929582958F7089279F70892781705E
:1009E00090708217930781F783E321CF21E030E0F5
:1009F0008091C000992796958795929582958F70E2
:100A000089279F708927817090708217930781F7DB
:100A100082E30DCF21E030E08091C00099279695C8
:100A20008795929582958F7089279F70892781700D
:100A300090708217930781F781E3F9CE21E030E0CF
:100A40008091C000992796958795929582958F7091
:100A500089279F708927817090708217930781F78B
:100A600080E3E5CE1F93182F82958F70ADDE812F26
:100A70008F70AADE1F9108950F931F93182F062FD2
:100A800082958F70A1DE812F8F709EDE802F8295E0
:100A90008F709ADE802F8F7097DE1F910F910895CF
:100AA000EF92FF921F937C01892F9927F82E829550
:100AB0008F708ADE8F2D8F7087DE8E2D82958F70DE
:100AC00083DE8E2D8F7080DE1F91FF90EF90089552
:100AD00025E42093BC0085E58093BA001092BD0008
:100AE000449A459A08951F920F920FB60F921124BF
:100AF0002F933F934F935F936F937F938F939F9326
:100B0000AF93BF93EF93FF932B9A82E547DE8091DB
:100B1000B900A8DF8AE042DE8DE040DE8091B900B6
:100B2000803699F02091B900203779F03091B900E2
:100B3000383831F04091B900483911F085EC06C0E1
:100B40005091BB0050933D01F9CF85E88093BC00E4
:100B5000FF91EF91BF91AF919F918F917F916F9195
:100B60005F914F913F912F910F900FBE0F901F906B
:100B700018952C982D98249A259A5298E0E5F1E042
:100B800087E01192815087FFFCCF0895E7E5F1E0FF
:100B900097E089B180832D9A2D989150319797FFD6
:100BA000F8CF08952C9AE7E5F1E097E089B18083CA
:100BB0002D9A2D989150319797FFF8CF2C98089542
:100BC000000102030004050600070809000A0B0CD7
:0E0BD0000001020300040506000708093200B8
:00000001FF
