:100000000C9434000C944F000C944F000C944F004F
:100010000C944F000C944F000C944F000C944E0223
:100020000C944F000C944F000C944F000C944F0014
:100030000C944F000C944F000C944F000C944F0004
:100040000C944F000C944F000C94E10E0C944F0054
:100050000C944F000C944F000C944F000C944F00E4
:100060000C94EE050C944F0011241FBECFEFD4E08A
:10007000DEBFCDBF11E0A0E0B1E0E8E3FEE102C0E9
:1000800005900D92A230B107D9F712E0A2E0B1E0DD
:1000900001C01D92AC32B107E1F70C9468000C94DA
:1000A00000005A983EEA3AB92DE027B98BEE84B9A0
:1000B000089540E050E0009721F09C01215030402D
:1000C000E9F74F5F5F4F2FEF4F3F5207A1F70895BA
:1000D000CFEFD4E0DEBFCDBFF8945A982EEA2AB90C
:1000E0001DE017B98BEE84B90E944A05812F0E944A
:1000F00031070E94CA000E941A010E94410182E059
:100100000E94010181E00E94F50083E00E949E00B0
:1001100084E00E94B40078945A9A85E00E94B4006A
:100120000E9463058823C9F30E94DD0585E00E94D3
:10013000B4000E946305882381F3F6CF99278330AA
:10014000910569F0843091051CF4019751F00895F0
:100150000597E9F785B192E0892785B9089529982F
:100160000895299A0895089599278430910569F092
:10017000853091051CF4029751F008950597E9F731
:1001800088B198E0892788B9089543980895439ADB
:1001900008950895219A3B9A2998439808956623D3
:1001A00021F0FC0141936150E9F70895E3E0F1E0AB
:1001B00086E01192815087FFFCCFEAE0F1E086E013
:1001C0001192815087FFFCCFE8E1F1E086E01192C7
:1001D000815087FFFCCFE1E1F1E086E01192815090
:1001E00087FFFCCF10921F01089599278130910558
:1001F00029F0039709F008955F9808955F9A08958C
:10020000089599278430910539F0853091052CF4B3
:10021000029731F04298419808950697D9F70895CA
:10022000429A08950895873011F040980895409AB1
:10023000089508955F98429841984098E3E0F1E06E
:1002400086E01192815087FFFCCFEAE0F1E086E082
:100250001192815087FFFCCFE8E1F1E086E0119236
:10026000815087FFFCCFE1E1F1E086E011928150FF
:1002700087FFFCCF10921F01089582E18093B000A8
:1002800008955B985091B6005F7D5093B60042E1AF
:100290004093B00031E03093B10028EC2093B300DC
:1002A00082E08093700087B3539A089508953CE8E4
:1002B00037BD18BC2FEF26BD82E084BD85BD0895F3
:1002C00015BC089582E28093B0000895262F33274D
:1002D00002C0359527958A95E2F7822F837099277A
:1002E0000895E62F282F332762E070E0C901062E1B
:1002F00002C0959587950A94E2F78370809309016F
:1003000041E050E0C901042E02C0959587950A94FA
:10031000E2F7837080930801322F33703093070126
:100320002E2F3327C9019695879596958795969593
:100330008795837080930601C90102C095958795C2
:100340006A95E2F7837080930501C90102C0959513
:1003500087954A95E2F7837080930401822F83701A
:10036000809303010895A82FBB27FD01E65FFE4F90
:1003700082E08083FD01EF5EFE4F1082A85EBE4FDB
:100380001C920895E82FFF2781E090E00E2E02C016
:10039000880F991F0A94E2F720911F01282B2093C0
:1003A0001F01E65FFE4F10820895CF93DF93C82FA1
:1003B000DD27AE01465F5E4FFA01808199270097E5
:1003C00029F00297A9F0EA01188265C0FE01ED5FED
:1003D000FE4F8081833009F05EC082E0FA018083A5
:1003E000FE01EF5EFE4F1082C85EDE4F188253C0E2
:1003F000FE01ED5FFE4F6081262F3327223031054D
:1004000029F1233031053CF42130310551F0C65F2C
:10041000DE4F188240C023303105F9F2C65FDE4F4F
:10042000F8CFFE01EF5EFE4F70817F5F7083783002
:1004300090F102C0220F331FCA95E2F730911F01DD
:10044000322B30931F01EA01188225C0FE01E85EBD
:10045000FE4FDE01AF5EBE4F6C9180E890E0062E4D
:1004600002C0959587950A94E2F79081982B908326
:10047000262F2F5F2C93283070F081E090E002C08F
:10048000880F991FCA95E2F7B0911F01B82BB0935E
:100490001F01EA011882DF91CF9108951F920F92F8
:1004A0000FB60F9211242F933F934F935F936F9347
:1004B0007F938F939F93209102012F5F20930201DE
:1004C00090910201809100019817C9F030910201CA
:1004D000303528F110920201409100014F30B9F0FF
:1004E000509100015E3079F060910001673199F020
:1004F0007FE07093000182E18093B00010C082E23F
:100500008093B0000CC087E180930001F1CF8EE0B2
:1005100080930001EDCF8FE080930001E9CF9F91A0
:100520008F917F916F915F914F913F912F910F909C
:100530000FBE0F901F901895EF92FF921F93CF93CD
:1005400052E0282F3327C901052E02C095958795C3
:100550000A94E2F7837080930901C9019595879504
:10056000837080930801122F137010930701262FB8
:100570003327C90195958795959587959595879585
:10058000837080930601C901052E02C09595879559
:100590000A94E2F7837080930501C90195958795C8
:1005A000837080930401822F8370282F3327209338
:1005B000030180910A019927009709F48BC00297E3
:1005C00009F4FEC010920A0180910B01992700974F
:1005D00009F48FC0029709F49CC110920B0122E02C
:1005E00080910C019927009709F496C0029709F4AD
:1005F00058C110920C0180910D019927009709F4C0
:100600009CC0029709F469C110920D0180910E01FE
:100610009927009709F4A3C0029709F426C1109204
:100620000E0180910F019927009709F4AAC0029743
:1006300009F4FFC010920F018091100199270097D3
:1006400009F4B1C0029709F4D8C01092100180E9F2
:100650000E94790580911F010E947905C0911F01B8
:10066000CC2309F406C261E0E62EF12C81E00E9461
:100670009E0070E018E0672FAC2FBB27462F552750
:100680009701042E02C0220F331F0A94E2F7A2231F
:10069000B3231A161B0664F4183008F0162F722BB9
:1006A000C70102C0880F991F4A95E2F78095C823B9
:1006B0006F5F673008F3F894872F0E947905E12F68
:1006C000FF27E85EFE4F80810E9479057894CC2355
:1006D00069F6CFC1233009F077CF50930A01109209
:1006E00011011092180180910B019927009709F0D0
:1006F00071CF60910401633009F071CFA2E0A09343
:100700000B01109212011092190122E080910C014C
:100710009927009709F06ACFB0910501B33009F02D
:100720006ACF20930C011092130110921A0180914C
:100730000D019927009709F064CF8091060183305D
:1007400009F064CF22E020930D0110921401109261
:100750001B0180910E019927009709F05DCF509100
:100760000701533009F05DCF92E090930E01109293
:10077000150110921C0180910F019927009709F033
:1007800056CFA0910801A33009F056CFE2E0E093E4
:100790000F011092160110921D01809110019927EE
:1007A000009709F04FCFF0910901F33009F04FCFD6
:1007B00032E0309310011092170110921E0147CFC2
:1007C000822F99278230910509F4DCC0833091058E
:1007D0000CF0BAC0019709F0F5CE809111018F5F3E
:1007E00080931101883008F4EFCE50911F015160C1
:1007F00050931F0110920A01E7CE809109019927B9
:100800008230910509F4E0C0833091050CF0A2C05C
:10081000019709F01ACF809117018F5F809317011C
:10082000883008F414CF80911F01806480931F01E9
:100830000CCF8091080199278230910509F4B3C04B
:10084000833091050CF08EC0019709F0F3CE8091B2
:1008500016018F5F80931601883008F4EDCEC091A9
:100860001F01C062C0931F01E5CE80910701992747
:100870008230910509F4ECC0833091050CF07AC008
:10088000019709F0CCCE809115018F5F80931501FF
:10089000883008F4C6CE70911F01706170931F01FB
:1008A000BECE8091050199278230910509F4BFC021
:1008B000833091050CF05AC0019709F09ACE8091CF
:1008C00013018F5F80931301883008F494CEF09168
:1008D0001F01F460F0931F018CCE809106019927CF
:1008E0008230910509F492C0833091050CF046C026
:1008F000019709F089CE809114018F5F80931401D4
:10090000883008F483CE30911F01386030931F0186
:100910007BCE8091040199278230910509F465C04E
:1009200083309105DCF4019709F057CE80911201D4
:100930008F5F80931201883008F451CE90911F018F
:10094000926090931F0149CE039709F4C6CE10928E
:100950000A013ACE039709F078CE2ACF039709F01F
:100960003CCECCCE039709F065CE10CF039709F0AB
:1009700040CED7CE039709F052CEF6CE039709F0BA
:1009800043CEE0CEE090110180E890E00E2C02C052
:10099000959587950A94E2F720911801282B2093CA
:1009A00018018E2D1CCFF090160180E890E00F2CDE
:1009B00002C0959587950A94E2F7B0911D01B82B76
:1009C000B0931D018F2D45CF4091170180E890E035
:1009D000042E02C0959587950A94E2F710911E01A6
:1009E000182B10931E01842F18CFF090120180E86D
:1009F00090E00F2C02C0959587950A94E2F77091CC
:100A00001901782B709319018F2D92CF4091140109
:100A100080E890E0042E02C0959587950A94E2F74D
:100A200010911B01182B10931B01842F66CFC091CE
:100A3000130180E890E00C2E02C0959587950A94EA
:100A4000E2F7E0911A01E82BE0931A018C2F39CFDD
:100A5000E090150180E890E00E2C02C095958795F6
:100A60000A94E2F760911C01682B60931C018E2DA3
:100A70000CCF10921F01CF911F91FF90EF9008951E
:100A800010922E0110922D01089510922C011092B7
:100A90002001089540E24093B80035E43093BC0053
:100AA00022E52093BA001092BD0044984598109218
:100AB0002E0110922D0110922C011092200181E044
:100AC00080932101089590912E0180912D01981716
:100AD00038F080912E0120912D01821B99270895D5
:100AE00080912E0130912D01831B86509927089506
:100AF000089530912E01E32FFF27E15DFE4F8083A3
:100B000020912E012F5F20932E0180912E018A3F8C
:100B100010F010922E0108950895E0912D0120917A
:100B20002D012F5F20932D0180912D018A3F10F020
:100B300010922D01FF27E15DFE4F808199270895D6
:100B400090912C0180912001981738F080912C0110
:100B500020912001821B9927089580912C013091CA
:100B60002001831B865F99270895089530912C01F9
:100B7000E32FFF27EE5DFE4F808320912C012F5F36
:100B800020932C0180912C018A3010F010922C01BE
:100B900008950895E0912001209120012F5F209376
:100BA0002001809120018A3010F010922001FF274F
:100BB000EE5DFE4F8081992708958091210181305B
:100BC00009F008952091BC0024FDFBCF42E0409342
:100BD000210135EE3093BC00089508951F920F92C5
:100BE0000FB60F9211242F933F934F935F936F9300
:100BF0007F938F939F93AF93BF93EF93FF9382E085
:100C00000E94B4008091B900883009F46EC0209130
:100C1000B900283109F445C03091B900383209F4DF
:100C200040C0B091B900B03209F4A1C0A091B900A0
:100C3000A03309F46BC07091B900783309F4C7C0D0
:100C4000B091B900B03659F1E091B900E03739F10F
:100C5000F091B900F03809F4D1C02091B9002039E1
:100C600009F4CCC05091B900583829F06091B9000E
:100C7000683909F046C0B091BB0020912C01E22FE9
:100C8000FF27EE5DFE4FB083A0912C01AF5FA093D4
:100C90002C0170912C017A3010F010922C0185EC0F
:100CA000CAC090912E0140912D01941710F58091AA
:100CB0002E0160912D01861B86509927882309F10A
:100CC000E0912D01A0912D01AF5FA0932D017091B6
:100CD0002D017A3F10F010922D01FF27E15DFE4FAC
:100CE000808199278093BB00DACF80E68093BB0098
:100CF000D6CF80912E0150912D01851B99278823F5
:100D0000F9F6F1E0F093210185ED95C0E0912E0117
:100D1000B0912D01EB1708F065C080912E01209154
:100D20002D01821B86509927882359F380912E012B
:100D300030912D01831708F477C080912E014091E6
:100D40002D01841B992780FFDCCFE0912D0160915C
:100D50002D016F5F60932D0150912D015A3F10F0CE
:100D600010922D01FF27E15DFE4F8081CACFF091E7
:100D70002E01E0912D01FE1770F180912E0120913E
:100D80002D01821B9927823008F4BBCF40912E01A0
:100D900080912D01481760F580912E0150912D0111
:100DA000851B8650992780FDD0CFE0912D01709151
:100DB0002D017F5F70932D0160912D016A3F10F02E
:100DC00010922D01FF27E15DFE4F8081BECFA1E093
:100DD000A093210164CF80912E0130912D01831BBE
:100DE0008650D0CF80912E01F0912D018F1B9BCF8B
:100DF00080912E0190912D01891BD4CF4091BB0091
:100E000090912C01E92FFF27EE5DFE4F40838091EA
:100E10002C018F5F80932C0130912C013A3010F01F
:100E200010922C0185E807C080912E0190912D0130
:100E3000891B865087CF8093BC0084E00E94B40059
:100E4000FF91EF91BF91AF919F918F917F916F91A2
:100E50005F914F913F912F910F900FBE0F901F9078
:100E600018958D3089F01092C00046E44093C2007E
:100E70001092C50034E43093C400519A54985C9A9F
:100E800088E08093C100089522E02093C00086E0AE
:100E90008093C2001092C5001092C400519A5098DD
:100EA00054981092290280E98093C1000895089512
:100EB0008093C6006093C6000895482F21E030E07B
:100EC0008091C000992796958795929582958F700D
:100ED00089279F708927817090708217930781F707
:100EE0004093C60008958093C600089599278730DF
:100EF000910509F4CBC0883091050CF065C08330B2
:100F0000910509F4D4C1843091050CF014C18130ED
:100F1000910509F46CC3823091050CF4AEC421E054
:100F200030E08091C000992796958795929582959B
:100F30008F7089279F70892781709070821793071F
:100F400081F770E37093C60021E030E08091C0002B
:100F5000992796958795929582958F7089279F708E
:100F60008927817090708217930781F790E390939F
:100F7000C60021E030E08091C000992796958795C2
:100F8000929582958F7089279F70892781709070C4
:100F90008217930781F7A1E3A093C60021E030E018
:100FA0008091C000992796958795929582958F702C
:100FB00089279F708927817090708217930781F726
:100FC00080E38093C60008958B30910509F41DC11C
:100FD0008C3091050CF009C18930910509F457C393
:100FE0000A970CF0B6C121E030E08091C00099274B
:100FF00096958795929582958F7089279F708927FE
:10100000817090708217930781F781E38093C60007
:1010100021E030E08091C0009927969587959295C0
:1010200082958F7089279F708927817090708217B1
:10103000930781F720E32093C60021E030E0809100
:10104000C000992796958795929582958F708927EC
:101050009F708927817090708217930781F730E322
:101060003093C60021E030E08091C000992796952A
:101070008795929582958F7089279F7089278170B7
:1010800090708217930781F780E39BCF21E030E0D7
:101090008091C000992796958795929582958F703B
:1010A00089279F708927817090708217930781F735
:1010B000B0E3B093C60021E030E08091C0009927F2
:1010C00096958795929582958F7089279F7089272D
:1010D000817090708217930781F7E1E3E093C60077
:1010E00021E030E08091C0009927969587959295F0
:1010F00082958F7089279F708927817090708217E1
:10110000930781F7F1E3F093C60021E030E080918E
:10111000C000992796958795929582958F7089271B
:101120009F708927817090708217930781F781E300
:101130008093C60008958530910509F4FAC2069798
:101140000CF0ADC121E030E08091C0009927969568
:101150008795929582958F7089279F7089278170D6
:1011600090708217930781F780E38093C60021E097
:1011700030E08091C0009927969587959295829549
:101180008F7089279F7089278170907082179307CD
:1011900081F721E32093C60021E030E08091C00078
:1011A000992796958795929582958F7089279F703C
:1011B0008927817090708217930781F730E330930D
:1011C000C60021E030E08091C00099279695879570
:1011D000929582958F7089279F7089278170907072
:1011E0008217930781F780E3ECCE8D30910509F4E7
:1011F000F2C28D3091050CF4FFC08E30910509F4D8
:1012000040C30F9709F49EC1089521E030E080911A
:10121000C000992796958795929582958F7089271A
:101220009F708927817090708217930781F7B1E3CF
:10123000B093C60021E030E08091C00099279695D8
:101240008795929582958F7089279F7089278170E5
:1012500090708217930781F7E0E3E093C60021E0E6
:1012600030E08091C0009927969587959295829558
:101270008F7089279F7089278170907082179307DC
:1012800081F7F1E3F093C60021E030E08091C000E7
:10129000992796958795929582958F7089279F704B
:1012A0008927817090708217930781F740CF21E0E2
:1012B00030E08091C0009927969587959295829508
:1012C0008F7089279F70892781709070821793078C
:1012D00081F7B0E3B093C60021E030E08091C00018
:1012E000992796958795929582958F7089279F70FB
:1012F0008927817090708217930781F7E0E3E0936C
:10130000C60021E030E08091C0009927969587952E
:10131000929582958F7089279F7089278170907030
:101320008217930781F7F1E3F093C60021E030E0E4
:101330008091C000992796958795929582958F7098
:1013400089279F708927817090708217930781F792
:10135000EECE21E030E08091C000992796958795E8
:10136000929582958F7089279F70892781709070E0
:101370008217930781F771E37093C60021E030E094
:101380008091C000992796958795929582958F7048
:1013900089279F708927817090708217930781F742
:1013A00090E39093C60021E030E08091C00099273F
:1013B00096958795929582958F7089279F7089273A
:1013C000817090708217930781F7A1E3A093C60004
:1013D00021E030E08091C0009927969587959295FD
:1013E00082958F7089279F708927817090708217EE
:1013F000930781F780E3E5CD21E030E08091C000E4
:10140000992796958795929582958F7089279F70D9
:101410008927817090708217930781F781E3809309
:10142000C60021E030E08091C0009927969587950D
:10143000929582958F7089279F708927817090700F
:101440008217930781F721E32093C60021E030E063
:101450008091C000992796958795929582958F7077
:1014600089279F708927817090708217930781F771
:1014700030E33093C60021E030E08091C00099272E
:1014800096958795929582958F7089279F70892769
:10149000817090708217930781F780E392CD21E0ED
:1014A00030E08091C0009927969587959295829516
:1014B0008F7089279F70892781709070821793079A
:1014C00081F770E37093C60021E030E08091C000A6
:1014D000992796958795929582958F7089279F7009
:1014E0008927817090708217930781F791E3909319
:1014F000C60021E030E08091C0009927969587953D
:10150000929582958F7089279F708927817090703E
:101510008217930781F7A1E3A093C60021E030E092
:101520008091C000992796958795929582958F70A6
:1015300089279F708927817090708217930781F7A0
:1015400080E33FCD21E030E08091C000992796955F
:101550008795929582958F7089279F7089278170D2
:1015600090708217930781F7B1E3B093C60021E032
:1015700030E08091C0009927969587959295829545
:101580008F7089279F7089278170907082179307C9
:1015900081F7E1E3E093C60021E030E08091C000F4
:1015A000992796958795929582958F7089279F7038
:1015B0008927817090708217930781F7F1E3F09388
:1015C000C60021E030E08091C0009927969587956C
:1015D000929582958F7089279F708927817090706E
:1015E0008217930781F781E38093C60008959C01D9
:1015F0008091C000992796958795929582958F70D6
:1016000089279F7089278227932780FDF1CF40E3A8
:101610004093C60021E030E08091C0009927969564
:101620008795929582958F7089279F708927817001
:1016300090708217930781F750E35093C60021E022
:1016400030E08091C0009927969587959295829574
:101650008F7089279F7089278170907082179307F8
:1016600081F760E36093C60021E030E08091C00024
:10167000992796958795929582958F7089279F7067
:101680008927817090708217930781F750CD21E0F0
:1016900030E08091C0009927969587959295829524
:1016A0008F7089279F7089278170907082179307A8
:1016B00081F741E34093C60021E030E08091C00013
:1016C000992796958795929582958F7089279F7017
:1016D0008927817090708217930781F750E35093A8
:1016E000C60021E030E08091C0009927969587954B
:1016F000929582958F7089279F708927817090704D
:101700008217930781F760E36093C60021E030E021
:101710008091C000992796958795929582958F70B4
:1017200089279F708927817090708217930781F7AE
:10173000FECC21E030E08091C000992796958795F6
:10174000929582958F7089279F70892781709070FC
:101750008217930781F740E34093C60021E030E011
:101760008091C000992796958795929582958F7064
:1017700089279F708927817090708217930781F75E
:1017800051E35093C60021E030E08091C0009927DA
:1017900096958795929582958F7089279F70892756
:1017A000817090708217930781F760E36093C600A1
:1017B00021E030E08091C000992796958795929519
:1017C00082958F7089279F7089278170907082170A
:1017D000930781F7ACCC21E030E08091C0009927DD
:1017E00096958795929582958F7089279F70892706
:1017F000817090708217930781F741E34093C60090
:1018000021E030E08091C0009927969587959295C8
:1018100082958F7089279F708927817090708217B9
:10182000930781F751E35093C60021E030E08091A7
:10183000C000992796958795929582958F708927F4
:101840009F708927817090708217930781F760E3FA
:101850006093C60021E030E08091C0009927969502
:101860008795929582958F7089279F7089278170BF
:1018700090708217930781F75ACC892B09F454C0D2
:10188000089521E030E08091C000992796958795D2
:10189000929582958F7089279F70892781709070AB
:1018A0008217930781F771E37093C60021E030E05F
:1018B0008091C000992796958795929582958F7013
:1018C00089279F708927817090708217930781F70D
:1018D00091E39093C60021E030E08091C000992709
:1018E00096958795929582958F7089279F70892705
:1018F000817090708217930781F7A1E3A093C600CF
:1019000021E030E08091C0009927969587959295C7
:1019100082958F7089279F708927817090708217B8
:10192000930781F780E34DCB21E030E08091C00048
:10193000992796958795929582958F7089279F70A4
:101940008927817090708217930781F780E38093D5
:10195000C60021E030E08091C000992796958795D8
:10196000929582958F7089279F70892781709070DA
:101970008217930781F720E32093C60021E030E02F
:101980008091C000992796958795929582958F7042
:1019900089279F708927817090708217930781F73C
:1019A00030E33093C60021E030E08091C0009927F9
:1019B00096958795929582958F7089279F70892734
:1019C000817090708217930781F780E3FACACF93F2
:1019D000C82F21E030E08091C00099279695879527
:1019E000929582958F7089279F708927817090705A
:1019F0008217930781F782E68093C6008C2F829529
:101A00008F700E9476078C2F8F700E947607CF917F
:101A1000089599278730910509F44AC088309105C7
:101A200024F58330910509F49AC0843091050CF0B7
:101A300055C08130910509F4FAC0823091050CF44B
:101A400044C121E030E08091C000992796958795A8
:101A5000929582958F7089279F70892781709070E9
:101A60008217930781F782E336C08B30910509F422
:101A700060C08C3091050CF04CC08930910509F4A0
:101A8000E8C00A970CF081C021E030E08091C000EE
:101A9000992796958795929582958F7089279F7043
:101AA0008927817090708217930781F788E313C0AC
:101AB00021E030E08091C000992796958795929516
:101AC00082958F7089279F70892781709070821707
:101AD000930781F787E38093C600089585309105C9
:101AE00009F4CBC006970CF078C021E030E080917B
:101AF000C000992796958795929582958F70892732
:101B00009F708927817090708217930781F784E313
:101B1000E2CF8D30910509F4C4C08D3091050CF4ED
:101B200048C08E30910509F4D3C00F9709F469C0FD
:101B3000089521E030E08091C0009927969587951F
:101B4000929582958F7089279F70892781709070F8
:101B50008217930781F782E48093C600089521E0FD
:101B600030E08091C000992796958795929582954F
:101B70008F7089279F7089278170907082179307D3
:101B800081F783E38093C600089521E030E08091DF
:101B9000C000992796958795929582958F70892791
:101BA0009F708927817090708217930781F781E475
:101BB00092CF21E030E08091C000992796958795DB
:101BC000929582958F7089279F7089278170907078
:101BD0008217930781F783E47ECF21E030E0809184
:101BE000C000992796958795929582958F70892741
:101BF0009F708927817090708217930781F786E321
:101C00006ACF21E030E08091C000992796958795B2
:101C1000929582958F7089279F7089278170907027
:101C20008217930781F786E48093C60008959C018C
:101C30008091C000992796958795929582958F708F
:101C400089279F7089278227932780FDF1CF81E321
:101C500042CF21E030E08091C0009927969587958A
:101C6000929582958F7089279F70892781709070D7
:101C70008217930781F789E32ECF21E030E080912E
:101C8000C000992796958795929582958F708927A0
:101C90009F708927817090708217930781F785E381
:101CA0001ACF21E030E08091C00099279695879562
:101CB000929582958F7089279F7089278170907087
:101CC0008217930781F784E406CF892BA9F0089542
:101CD00021E030E08091C0009927969587959295F4
:101CE00082958F7089279F708927817090708217E5
:101CF000930781F785E4EFCE21E030E08091C000CA
:101D0000992796958795929582958F7089279F70D0
:101D10008927817090708217930781F780E3DBCE6B
:101D20001F93182F82958F700E94090D812F8F703D
:101D30000E94090D1F9108950F931F93182F062FCE
:101D400082958F700E94090D812F8F700E94090D5E
:101D5000802F82958F700E94090D802F8F700E94B6
:101D6000090D1F910F910895EF92FF921F937C012F
:101D7000892F9927F82E82958F700E94090D8F2D3B
:101D80008F700E94090D8E2D82958F700E94090D13
:101D90008E2D8F700E94090D1F91FF90EF90089576
:101DA00090912A02992321F480912B02882339F003
:101DB000892F0E94790580912B020E947905089550
:101DC00008951F920F920FB60F9211242F933F93F5
:101DD0004F935F936F937F938F939F93AF93BF9333
:101DE000EF93FF9380912902882341F48F5F8093C2
:101DF00029022091C60020932A020DC08091C600BE
:101E000080932B0210922902789460912B0280918A
:101E10002A020E949C02FF91EF91BF91AF919F9186
:101E20008F917F916F915F914F913F912F910F9083
:081E30000FBE0F901F901895E2
:021E38000F0099
:00000001FF
