:1000000029C042C041C040C03FC03EC03DC023C423
:100010003BC03AC039C038C037C036C035C034C024
:1000200033C032C031C030C02FC044C42DC02CC03A
:10003000F4C62AC09DC688C673C65EC649C634C605
:100040001FC60AC6F5C5E0C5CBC5B6C5A1C58CC5DA
:1000500075C55EC511241FBECFEFD2E0DEBFCDBF98
:1000600011E0A0E0B1E0E4EFFEE002C005900D92E7
:10007000A230B107D9F711E0A2E0B1E001C01D92B2
:10008000A032B107E1F799C1BBCF18B82EEF27B95D
:100090001BB81AB81092B60016BC1DBA80E880BF13
:1000A000089540E050E0009721F09C01215030403D
:1000B000E9F74F5F5F4F2FEF4F3F5207A1F70895CA
:1000C000089567E0862F9CD120E030E08EE290E03A
:1000D000019797FFFDCF2F5F3F4F8FEF2F3F3807DF
:1000E000A9F766E0862F8CD120E030E08EE290E028
:1000F000019797FFFDCF2F5F3F4F8FEF2F3F3807BF
:10010000A9F765E0862F7CD120E030E08EE290E018
:10011000019797FFFDCF2F5F3F4F8FEF2F3F38079E
:10012000A9F764E0862F6CD120E030E08EE290E009
:10013000019797FFFDCF2F5F3F4F8FEF2F3F38077E
:10014000A9F761E0862F5CD120E030E08EE290E0FC
:10015000019797FFFDCF2F5F3F4F8FEF2F3F38075E
:10016000A9F762E0862F4CD120E030E08EE290E0EB
:10017000019797FFFDCF2F5F3F4F8FEF2F3F38073E
:10018000A9F763E0862F3CD120E030E08EE290E0DA
:10019000019797FFFDCF2F5F3F4F8FEF2F3F38071E
:1001A000A9F78FCF63E087E02BD120E030E08EE22B
:1001B00090E0019797FFFDCF2F5F3F4F8FEF2F3FCD
:1001C0003807A9F767E083E01BD120E030E08EE23A
:1001D00090E0019797FFFDCF2F5F3F4F8FEF2F3FAD
:1001E0003807A9F7DFCF8091080190910901F2D576
:1001F00080E26ED480910A0190910B01EBD58AE0E8
:1002000067D48DE065D4089580910801909109012B
:10021000E1D580E25DD480910A0190910B01DAD59D
:100220008AE056D48DE054D408954CD267E0862FEE
:10023000E7D020910A0130910B0180910801909143
:1002400009012817390788F4809108019091090164
:10025000C1D580E23DD480910A0190910B01BAD5BD
:100260008AE036D48DE034D4E4CF1092050161E009
:10027000862FC6D060910A0170910B014091080150
:10028000509109016417750788F0809108019091D9
:100290000901A0D580E21CD480910A0190910B0144
:1002A00099D58AE015D48DE013D4E4CF63E0862F8E
:1002B000A7D020E030E08EE190E0019797FFFDCFDE
:1002C0002F5F3F4F8FEF2F3F3807A9F767E083E09D
:1002D00097D020E030E08DE090E0019797FFFDCFD0
:1002E0002F5F3F4F8FEF2F3F3807A9F79FCFE0D306
:1002F00088E4EED385E4ECD38CE4EAD38CE4E8D351
:100300008FE4E6D380E2E4D38DE4E2D38FE4E0D35C
:1003100084E5DED385E4DCD38AE0DAD38DE0D8D37C
:10032000E7CFD0D1809108019091090153D580E2A7
:10033000CFD380910A0190910B014CD58AE0C8D3AC
:100340008DE0C6D3EFCF5B9A20E030E08EE290E004
:10035000019797FFFDCF2F5F3F4F8FEF2F3F38075C
:10036000A9F75B9820E030E08EE290E0019797FFDC
:10037000FDCF2F5F3F4F8FEF2F3F3807A9F75B9AD5
:1003800020E030E08EE290E0019797FFFDCF2F5FF5
:100390003F4F8FEF2F3F3807A9F75B9820E030E001
:1003A0008EE290E0019797FFFDCF2F5F3F4F8FEFD9
:1003B0002F3F3807A9F75B9A0895CFEFD2E0DEBF51
:1003C000CDBF18B82EEF27B91BB81AB81092B600D7
:1003D00016BC1DBA80E880BF08D06AD304D1239A26
:1003E0002B9878943B9A11D2FFCF559A569A209A1F
:1003F000219A24B52D7F24BD84B5816084BD0895E4
:1004000099278430910561F185309105E4F48230BB
:10041000910509F469C0833091050CF05FC0019724
:1004200009F477C084B58F7784BD5E9877276430F0
:10043000710511F5299A80EA88BD64B5606264BDD2
:1004400055E055BD08958630910509F450C08630B9
:1004500091050CF446C0079729F728988FEF02C042
:10046000289880EA87BD34B5306834BD25E025BDC5
:10047000772764307105F1F26530710564F46230FC
:10048000710509F440C063307105FCF461307105F9
:1004900059F42998D0CF6630710561F16630710545
:1004A0005CF06730710591F144B54F7D44BD04B4F3
:1004B00007FE15BC5E980895299A8EEB88BD64B539
:1004C000606264BD55E055BD089529988FEF88BDE1
:1004D00064B5606264BD55E055BD0895289A8FEFFC
:1004E000C1CF28988EEBBECF289A87EDBBCF289836
:1004F00087EDB8CF299A87ED88BD64B5606264BD89
:1005000055E055BD0895299887EDF6CF299A8FEFCC
:10051000DECF289AA6CF682F807C09F00895862F19
:10052000992788739070959587959595879595955A
:100530008795677065DF08950895419A399A3B9AC7
:10054000579A3A9A109206010895419800000000C7
:1005500000000000419A0895982F27E002C05F989C
:1005600006C04398892F80788038C9F75F9A990F21
:10057000439A0000000000000000215027FFF1CF47
:10058000089541980000000000000000419A429840
:100590009091060127E00AC05F98990F439A0000E6
:1005A000000000000000215027FD07C04398892F5C
:1005B0008078803889F75F9AF0CF00000000000053
:1005C000000043980000000000000000429A0895D7
:1005D00008950895089582E28093B000089582E11D
:1005E0008093B00008955B985091B6005F7D509362
:1005F000B60042E14093B00031E03093B10022E612
:100600002093B30082E08093700087B3539A0895DB
:1006100010920401409830E430937C002EE6209341
:100620007A0010927B0081E080937E0010920E0190
:1006300010920F01109210011092110110921401EA
:10064000109215011092160110921701089521E0E1
:100650002093040110920E0110920F0110921001CC
:1006600010921101109214011092150110921601AE
:100670001092170110920B0110920A0110920D01B5
:1006800010920C01109202018EEE80937A00089570
:1006900080910601877E8093060173DF0895209183
:1006A0000601277E209306016CDF109204018EE282
:1006B00080937A00089580910601886580930601F1
:1006C00060DF08953091060138653093060159DFE7
:1006D00021E02093040110920E0110920F0110925C
:1006E0001001109211011092140110921501109234
:1006F00016011092170110920B0110920A0110922C
:100700000D0110920C01109202018EEE80937A007E
:10071000089520910601206520930601809106012D
:10072000877F809306012DDF089540910601406583
:100730004093060130910601377F3093060121DF97
:1007400021E02093040110920E0110920F011092EB
:1007500010011092110110921401109215011092C3
:1007600016011092170110920B0110920A011092BB
:100770000D0110920C01109202018EEE80937A000E
:1007800008952091060128642093060180910601B6
:100790008F7E80930601F5DE08954091060148643E
:1007A00040930601309106013F7E30930601E9DE59
:1007B00021E02093040110920E0110920F0110927B
:1007C0001001109211011092140110921501109253
:1007D00016011092170110920B0110920A0110924B
:1007E0000D0110920C01109202018EEE80937A009E
:1007F000089520910601226420930601809106014C
:100800008A7F80930601BDDE08952091060124644D
:1008100020930601809106018C7F80930601B1DE52
:10082000089580910601866480930601AADE0895EA
:100830002091060121642093060180910601897FA1
:10084000809306019EDE089580910601887F809343
:10085000060197DE08951F920F920FB60F92112492
:100860002F933F934F938F939F93209103012F5F7B
:10087000209303019091030180910001981769F082
:1008800030910301303560F01092030144E1409350
:10089000000182E18093B00003C082E28093B00047
:1008A0009F918F914F913F912F910F900FBE0F907D
:1008B0001F9018951F920F920FB60F9211242F932D
:1008C0003F934F935F936F938F939F93AF93BF9398
:1008D00060910401653009F440C06230F1F1663086
:1008E00009F16430F9F0309102013F5F3093020169
:1008F00080910201883008F4CDC010920201653069
:1009000009F44AC0663009F463C0613009F440C09C
:10091000633009F47FC0623009F49DC0643009F08F
:10092000B9C07CC08091780090917900AA27BB273C
:100930002091140130911501409116015091170139
:10094000820F931FA41FB51F80931401909315016C
:10095000A0931601B0931701C6CF809178009091B3
:100960007900AA27BB2720910E0130910F014091F9
:10097000100150911101820F931FA41FB51F809386
:100980000E0190930F01A0931001B0931101ABCF12
:1009900082E0809304017EC080910E0190910F014E
:1009A000A0911001B091110153E0B695A7959795CC
:1009B00087955A95D1F790930B0180930A01109275
:1009C0000E0110920F01109210011092110162C0DD
:1009D0008091140190911501A0911601B091170119
:1009E00043E0B695A795979587954A95D1F790934B
:1009F0000D0180930C0110921401109215011092B8
:100A000016011092170155E05093040146E44093FB
:100A10007C0040C084E0809304013CC080911401BC
:100A200090911501A0911601B091170123E0B695A0
:100A3000A795979587952A95D1F7049790931301D9
:100A40008093120110920E0110920F01109210016A
:100A500010921101D8CF80910E0190910F01A091B9
:100A60001001B091110133E0B695A7959795879540
:100A70003A95D1F704979093090180930801109259
:100A80000E0110920F01109210011092110185E0D9
:100A900080930401BF91AF919F918F916F915F916E
:100AA0004F913F912F910F900FBE0F901F9018956F
:100AB00042E04093C00038E13093C10026E020932B
:100AC000C2001092C50089E18093C400519A089534
:100AD000482F21E030E08091C000992796958795B6
:100AE000929582958F7089279F7089278170907069
:100AF0008217930781F74093C60008959927AA2784
:100B0000BB2780319105C8F4FC01E65EFF4F0994D4
:100B100021E030E08091C0009927969587959295C5
:100B200082958F7089279F708927817090708217B6
:100B3000930781F786E48093C600089521E030E0B2
:100B40008091C000992796958795929582958F7090
:100B500089279F708927817090708217930781F78A
:100B600085E48093C600089521E030E08091C000C4
:100B7000992796958795929582958F7089279F7072
:100B80008927817090708217930781F784E4E9CFF9
:100B900021E030E08091C000992796958795929545
:100BA00082958F7089279F70892781709070821736
:100BB000930781F783E4D5CF21E030E08091C00036
:100BC000992796958795929582958F7089279F7022
:100BD0008927817090708217930781F782E4C1CFD3
:100BE00021E030E08091C0009927969587959295F5
:100BF00082958F7089279F708927817090708217E6
:100C0000930781F781E4ADCF21E030E08091C0000F
:100C1000992796958795929582958F7089279F70D1
:100C20008927817090708217930781F789E399CFA4
:100C300021E030E08091C0009927969587959295A4
:100C400082958F7089279F70892781709070821795
:100C5000930781F788E385CF21E030E08091C000E1
:100C6000992796958795929582958F7089279F7081
:100C70008927817090708217930781F787E371CF7E
:100C800021E030E08091C000992796958795929554
:100C900082958F7089279F70892781709070821745
:100CA000930781F786E35DCF21E030E08091C000BB
:100CB000992796958795929582958F7089279F7031
:100CC0008927817090708217930781F785E349CF58
:100CD00021E030E08091C000992796958795929504
:100CE00082958F7089279F708927817090708217F5
:100CF000930781F784E335CF21E030E08091C00095
:100D0000992796958795929582958F7089279F70E0
:100D10008927817090708217930781F783E321CF31
:100D200021E030E08091C0009927969587959295B3
:100D300082958F7089279F708927817090708217A4
:100D4000930781F782E30DCF21E030E08091C0006E
:100D5000992796958795929582958F7089279F7090
:100D60008927817090708217930781F781E3F9CE0C
:100D700021E030E08091C000992796958795929563
:100D800082958F7089279F70892781709070821754
:100D9000930781F780E3E5CE1F93182F82958F701C
:100DA000ADDE812F8F70AADE1F9108950F931F93E0
:100DB000182F062F82958F70A1DE812F8F709EDEF7
:100DC000802F82958F709ADE802F8F7097DE1F9113
:100DD0000F910895EF92FF921F937C01892F99271D
:100DE000F82E82958F708ADE8F2D8F7087DE8E2D84
:100DF00082958F7083DE8E2D8F7080DE1F91FF9025
:100E0000EF90089525E42093BC0085E58093BA0017
:100E10001092BD00449A459A08951F920F920FB602
:100E20000F9211242F933F934F935F936F937F9370
:100E30008F939F93AF93BF93EF93FF932B9A82E58A
:100E400047DE8091B900A8DF8AE042DE8DE040DE17
:100E50008091B900803699F02091B900203779F05F
:100E60003091B900383831F04091B900483911F06B
:100E700085EC06C05091BB0050930501F9CF85E881
:100E80008093BC00FF91EF91BF91AF919F918F91A3
:100E90007F916F915F914F913F912F910F900FBE76
:100EA0000F901F9018952C982D98249A259A529857
:100EB000E8E1F1E087E01192815087FFFCCF0895CF
:100EC000EFE1F1E097E089B180832D9A2D98915060
:100ED000319797FFF8CF08952C9AEFE1F1E097E072
:100EE00089B180832D9A2D989150319797FFF8CF33
:040EF0002C9808959D
:020EF4003200CA
:00000001FF
