:1000000029C042C041C040C03FC03EC03DC088C4BE
:100010003BC03AC039C038C037C036C035C034C024
:1000200033C032C031C030C02FC0C2C42DC02CC0BC
:1000300077C72AC020C70BC7F6C6E1C6CCC6B7C66D
:10004000A2C68DC678C663C64EC639C624C60FC6BC
:10005000F8C5E1C511241FBECFEFD2E0DEBFCDBF92
:1000600011E0A0E0B1E0EAEFFFE002C005900D92E0
:10007000A230B107D9F711E0A2E0B1E001C01D92B2
:10008000A232B107E1F7F5C1BBCF18B82EEF27B9FF
:100090001BB81AB81092B60016BC1DBA80E880BF13
:1000A000089540E050E0009721F09C01215030403D
:1000B000E9F74F5F5F4F2FEF4F3F5207A1F70895CA
:1000C000089567E0862FF8D120E030E08EE290E0DE
:1000D000019797FFFDCF2F5F3F4F8FEF2F3F3807DF
:1000E000A9F766E0862FE8D120E030E08EE290E0CC
:1000F000019797FFFDCF2F5F3F4F8FEF2F3F3807BF
:10010000A9F765E0862FD8D120E030E08EE290E0BC
:10011000019797FFFDCF2F5F3F4F8FEF2F3F38079E
:10012000A9F764E0862FC8D120E030E08EE290E0AD
:10013000019797FFFDCF2F5F3F4F8FEF2F3F38077E
:10014000A9F761E0862FB8D120E030E08EE290E0A0
:10015000019797FFFDCF2F5F3F4F8FEF2F3F38075E
:10016000A9F762E0862FA8D120E030E08EE290E08F
:10017000019797FFFDCF2F5F3F4F8FEF2F3F38073E
:10018000A9F763E0862F98D120E030E08EE290E07E
:10019000019797FFFDCF2F5F3F4F8FEF2F3F38071E
:1001A000A9F78FCF63E087E087D120E030E08EE2CF
:1001B00090E0019797FFFDCF2F5F3F4F8FEF2F3FCD
:1001C0003807A9F767E083E077D120E030E08EE2DE
:1001D00090E0019797FFFDCF2F5F3F4F8FEF2F3FAD
:1001E0003807A9F7DFCF80910A0190910B0175D6EE
:1001F00080E2F1D480910C0190910D016ED680E2E5
:10020000EAD4809114019091150167D680E2E3D47D
:1002100080910E0190910F0160D68AE0DCD48DE0D0
:10022000DAD4089580910A0190910B0156D680E2AC
:10023000D2D480910C0190910D014FD680E2CBD4A5
:10024000809114019091150148D680E2C4D4809128
:100250000E0190910F0141D68AE0BDD48DE0BBD450
:10026000089578D267E0862F27D160910C017091B4
:100270000D0140910A0150910B016417750750F56B
:1002800020910E0130910F01809114019091150180
:1002900028173907F8F480910A0190910B011DD6B7
:1002A00080E299D480910C0190910D0116D680E2E4
:1002B00092D480911401909115010FD680E28BD4D5
:1002C00080910E0190910F0108D68AE084D48DE0D0
:1002D00082D4CBCF1092070161E0862FEDD01EC0F3
:1002E00080910A0190910B01F8D580E274D480913D
:1002F0000C0190910D01F1D580E26DD48091140133
:1003000090911501EAD580E266D480910E0190911A
:100310000F01E3D58AE05FD48DE05DD4E0910C015C
:10032000F0910D01A0910A01B0910B01EA17FB07B2
:10033000B8F620910E0130910F0180911401909137
:1003400015012817390760F663E0862FB5D020E045
:1003500030E08EE190E0019797FFFDCF2F5F3F4F98
:100360008FEF2F3F3807A9F767E083E0A5D020E0A3
:1003700030E08DE090E0019797FFFDCF2F5F3F4F7A
:100380008FEF2F3F3807A9F76DCF15D488E423D41A
:1003900085E421D48CE41FD48CE41DD48FE41BD4D9
:1003A00080E219D48DE417D48FE415D484E513D4F6
:1003B00085E411D48AE00FD48DE00DD4E7CFCAD103
:1003C00080910A0190910B0188D580E204D480913C
:1003D0000C0190910D0181D580E2FDD38091140133
:1003E000909115017AD580E2F6D380910E0190911B
:1003F0000F0173D58AE0EFD38DE0EDD3E1CF5B9AA7
:1004000020E030E08EE290E0019797FFFDCF2F5F74
:100410003F4F8FEF2F3F3807A9F75B9820E030E080
:100420008EE290E0019797FFFDCF2F5F3F4F8FEF58
:100430002F3F3807A9F75B9A20E030E08EE290E08A
:10044000019797FFFDCF2F5F3F4F8FEF2F3F38076B
:10045000A9F75B9820E030E08EE290E0019797FFEB
:10046000FDCF2F5F3F4F8FEF2F3F3807A9F75B9AE4
:100470000895CFEFD2E0DEBFCDBF18B82EEF27B979
:100480001BB81AB81092B60016BC1DBA80E880BF1F
:1004900008D091D3F0D0239A2B9878943B9AFDD131
:1004A000FFCF559A569A209A219A24B52D7F24BDC4
:1004B00084B5816084BD089599278430910561F1E8
:1004C00085309105E4F48230910509F469C08330E8
:1004D00091050CF05FC0019709F477C084B58F7760
:1004E00084BD5E9877276430710511F52A9A80EAF9
:1004F00088BD64B5606264BD55E055BD0895863021
:10050000910509F450C0863091050CF446C0079758
:1005100029F729988FEF02C0299880EA87BD34B562
:10052000306834BD25E025BD772764307105F1F2D0
:100530006530710564F46230710509F440C06330C0
:100540007105FCF46130710559F42A98D0CF6630FA
:10055000710561F1663071055CF06730710591F1EC
:1005600044B54F7D44BD04B407FE15BC5E980895A4
:100570002A9A8EEB88BD64B5606264BD55E055BDB6
:1005800008952A988FEF88BD64B5606264BD55E018
:1005900055BD0895299A8FEFC1CF29988EEBBECF14
:1005A000299A87EDBBCF299887EDB8CF2A9A87ED96
:1005B00088BD64B5606264BD55E055BD08952A9854
:1005C00087EDF6CF2A9A8FEFDECF299AA6CF682F34
:1005D000807C09F00895862F9927887390709595EF
:1005E00087959595879595958795677065DF0895AB
:1005F0000895419A399A3B9A579A3A9A109208016B
:1006000008954198419A0895982F27E002C05F9875
:1006100006C04398892F80788038C9F75F9A990F70
:10062000439A215027FFF5CF08954198419A429867
:100630009091080127E006C05F98990F439A2150D6
:1006400027FD0BC04398892F80788038A9F75F9ADF
:10065000990F439A215027FFF5CF4398429A089566
:1006600008950895089582E28093B000089582E18C
:100670008093B00008955B985091B6005F7D5093D1
:10068000B60042E14093B00031E03093B10022E681
:100690002093B30082E08093700087B3539A08954B
:1006A00010920601409836E430937C002EE62093A9
:1006B0007A0010927B0081E080937E0010921001FE
:1006C0001092110110921201109213011092160152
:1006D000109217011092180110921901089521E04B
:1006E0002093060110921001109211011092120134
:1006F0001092130110921601109217011092180116
:100700001092190110920D0110920C0110920F011C
:1007100010920E01109202018EEE80937A000895DD
:1007200080910801877E809308017FDF08952091E2
:100730000801277E2093080178DF109206018EE2DF
:1007400080937A000895809108018865809308015C
:100750006CDF08953091080138653093080165DF3A
:1007600021E02093060110921001109211011092C5
:10077000120110921301109216011092170110929B
:1007800018011092190110920D0110920C01109293
:100790000F0110920E01109202018EEE80937A00EA
:1007A0000895209108012065209308018091080197
:1007B000877F8093080139DF0895409108014065E3
:1007C0004093080130910801377F309308012DDFF5
:1007D00021E0209306011092100110921101109255
:1007E000120110921301109216011092170110922B
:1007F00018011092190110920D0110920C01109223
:100800000F0110920E01109202018EEE80937A0079
:10081000089520910801286420930801809108011F
:100820008F7E8093080101DF08954091080148649C
:1008300040930801309108013F7E30930801F5DEB6
:1008400021E02093060110921001109211011092E4
:1008500012011092130110921601109217011092BA
:1008600018011092190110920D0110920C011092B2
:100870000F0110920E01109202018EEE80937A0009
:1008800008952091080122642093080180910801B5
:100890008A7F80930801C9DE0895209108012464AD
:1008A00020930801809108018C7F80930801BDDEB0
:1008B000089580910801866480930801B6DE08954A
:1008C0002091080121642093080180910801897F0B
:1008D00080930801AADE089580910801887F8093A3
:1008E0000801A3DE0895809103018F5F893091F0A4
:1008F0008093030180910401882331F48F5F8093FA
:1009000004018EE190E0089581508093040184E118
:1009100090E00895109203018FE090E0089508950B
:100920001F920F920FB60F9211242F933F938F9324
:100930009F93209105012F5F209305019091050160
:10094000809100019817E1F030910501303538F1C0
:1009500010920501809103018F5F8930D9F0809357
:10096000030180910401882379F081508093040170
:1009700084E190E08093000182E18093B0000FC099
:1009800082E28093B0000BC08F5F809304018EE100
:1009900090E0F0CF109203018FE090E0EBCF9F91B9
:1009A0008F913F912F910F900FBE0F901F90189530
:1009B0001F920F920FB60F9211242F933F934F93D4
:1009C0005F936F938F939F93AF93BF936091060153
:1009D000653009F440C06230F1F1663009F16430ED
:1009E000F9F0309102013F5F3093020180910201E2
:1009F000883008F4D2C010920201653009F44AC070
:100A0000663009F469C0613009F440C0633009F40C
:100A100085C0623009F4A3C0643009F0BEC082C052
:100A20008091780090917900AA27BB272091160128
:100A3000309117014091180150911901820F931FB5
:100A4000A41FB51F8093160190931701A09318015E
:100A5000B0931901C6CF8091780090917900AA27B0
:100A6000BB2720911001309111014091120150914A
:100A70001301820F931FA41FB51F80931001909341
:100A80001101A0931201B0931301ABCF82E08093C8
:100A9000060183C08091100190911101A091120173
:100AA000B091130153E0B695A795979587955A9500
:100AB000D1F790930D0180930C01109210011092C8
:100AC0001101109212011092130186E08093060129
:100AD00087E480937C0061C080911601909117019A
:100AE000A0911801B091190143E0B695A79597958B
:100AF00087954A95D1F790930F0180930E0110923C
:100B0000160110921701109218011092190145E078
:100B10004093060186E480937C003FC084E080938C
:100B200006013BC08091160190911701A091180118
:100B3000B091190123E0B695A795979587952A95C9
:100B4000D1F704979093150180931401109210012E
:100B5000109211011092120110921301D8CF8091BE
:100B6000100190911101A0911201B091130133E095
:100B7000B695A795979587953A95D1F70497909351
:100B80000B0180930A011092100110921101109232
:100B900012011092130183E099CFBF91AF919F9101
:100BA0008F916F915F914F913F912F910F900FBE59
:100BB0000F901F90189542E04093C00038E13093A9
:100BC000C10026E02093C2001092C50089E1809305
:100BD000C400519A0895482F21E030E08091C00070
:100BE000992796958795929582958F7089279F7002
:100BF0008927817090708217930781F74093C60010
:100C000008959927AA27BB2780319105C8F4FC01D4
:100C1000E65EFF4F099421E030E08091C000992703
:100C200096958795929582958F7089279F708927D1
:100C3000817090708217930781F786E48093C600D5
:100C4000089521E030E08091C0009927969587951E
:100C5000929582958F7089279F70892781709070F7
:100C60008217930781F785E48093C600089521E0F9
:100C700030E08091C000992796958795929582954E
:100C80008F7089279F7089278170907082179307D2
:100C900081F784E4E9CF21E030E08091C00099271A
:100CA00096958795929582958F7089279F70892751
:100CB000817090708217930781F783E4D5CF21E08C
:100CC00030E08091C00099279695879592958295FE
:100CD0008F7089279F708927817090708217930782
:100CE00081F782E4C1CF21E030E08091C0009927F4
:100CF00096958795929582958F7089279F70892701
:100D0000817090708217930781F781E4ADCF21E065
:100D100030E08091C00099279695879592958295AD
:100D20008F7089279F708927817090708217930731
:100D300081F789E399CF21E030E08091C0009927C5
:100D400096958795929582958F7089279F708927B0
:100D5000817090708217930781F788E385CF21E037
:100D600030E08091C000992796958795929582955D
:100D70008F7089279F7089278170907082179307E1
:100D800081F787E371CF21E030E08091C00099279F
:100D900096958795929582958F7089279F70892760
:100DA000817090708217930781F786E35DCF21E011
:100DB00030E08091C000992796958795929582950D
:100DC0008F7089279F708927817090708217930791
:100DD00081F785E349CF21E030E08091C000992779
:100DE00096958795929582958F7089279F70892710
:100DF000817090708217930781F784E335CF21E0EB
:100E000030E08091C00099279695879592958295BC
:100E10008F7089279F708927817090708217930740
:100E200081F783E321CF21E030E08091C000992752
:100E300096958795929582958F7089279F708927BF
:100E4000817090708217930781F782E30DCF21E0C4
:100E500030E08091C000992796958795929582956C
:100E60008F7089279F7089278170907082179307F0
:100E700081F781E3F9CE21E030E08091C00099272D
:100E800096958795929582958F7089279F7089276F
:100E9000817090708217930781F780E3E5CE1F93EE
:100EA000182F82958F70ADDE812F8F70AADE1F9173
:100EB00008950F931F93182F062F82958F70A1DE30
:100EC000812F8F709EDE802F82958F709ADE802F0B
:100ED0008F7097DE1F910F910895EF92FF921F93ED
:100EE0007C01892F9927F82E82958F708ADE8F2DAD
:100EF0008F7087DE8E2D82958F7083DE8E2D8F70A2
:100F000080DE1F91FF90EF90089525E42093BC00B0
:100F100085E58093BA001092BD00449A459A0895E1
:100F20001F920F920FB60F9211242F933F934F935E
:100F30005F936F937F938F939F93AF93BF93EF9341
:100F4000FF932B9A82E547DE8091B900A8DF8AE003
:100F500042DE8DE040DE8091B900803699F020912C
:100F6000B900203779F03091B900383831F040912C
:100F7000B900483911F085EC06C05091BB00509380
:100F80000701F9CF85E88093BC00FF91EF91BF91F5
:100F9000AF919F918F917F916F915F914F913F9111
:100FA0002F910F900FBE0F901F9018952C982D9891
:100FB000249A259A5298EAE1F1E087E01192815053
:100FC00087FFFCCF0895E1E2F1E097E089B18083EB
:100FD0002D9A2D989150319797FFF8CF08952C9A1C
:100FE000E1E2F1E097E089B180832D9A2D9891504C
:0A0FF000319797FFF8CF2C98089571
:020FFA003200C3
:00000001FF
