:100000000C9434000C944F000C944F000C944F004F
:100010000C944F000C944F000C944F000C944F0024
:100020000C944F000C944F000C944F000C944F0014
:100030000C944F000C944F000C944F000C944F0004
:100040000C944F000C944F000C944F000C944F00F4
:100050000C944F000C944F000C944F000C944F00E4
:100060000C9488080C944F0011241FBECFEFD4E0ED
:10007000DEBFCDBF11E0A0E0B1E0EEE3F2E102C0EF
:1000800005900D92A030B107D9F711E0A0E0B1E0E2
:1000900001C01D92AD3FB107E1F70C946B000C94C9
:1000A000000041E245B93EED34B92FE028B917B858
:1000B0001BB883E08AB9089540E050E0009721F032
:1000C0009C0121503040E9F74F5F5F4F2FEF4F3FCA
:1000D0005207A1F70895CFEFD4E0DEBFCDBF41E2D4
:1000E00045B93EED34B92FE028B917B81BB883E005
:1000F0008AB98CE00E949E000E947B0878940E943E
:100100003E088823E1F38DE20E94C6000E94680841
:10011000C82F8F3779F08C2F0E94F9070E943E0874
:10012000882369F38DE20E94C6000E946808C82FE8
:100130008F3789F783E00E94DD08EDCF8D3081F0A5
:100140001092C00026E42093C2001092C50082E203
:100150008093C400519A549A38E03093C1000895B6
:100160001092C00086E48093C2001092C50083E024
:100170008093C400519A549A38E03093C100089596
:1001800008958093C6006093C6000895482F21E02B
:1001900030E08091C0009927969587959295829539
:1001A0008F7089279F7089278170907082179307BD
:1001B00081F74093C60008958093C600089599275B
:1001C0008730910509F4CBC0883091050CF065C0EB
:1001D0008330910509F4D4C1843091050CF014C129
:1001E0008130910509F46CC3823091050CF4AEC4E2
:1001F00021E030E08091C0009927969587959295EF
:1002000082958F7089279F708927817090708217DF
:10021000930781F770E37093C60021E030E080918E
:10022000C000992796958795929582958F7089271A
:100230009F708927817090708217930781F790E3F0
:100240009093C60021E030E08091C00099279695F8
:100250008795929582958F7089279F7089278170E5
:1002600090708217930781F7A1E3A093C60021E065
:1002700030E08091C0009927969587959295829558
:100280008F7089279F7089278170907082179307DC
:1002900081F780E38093C60008958B30910509F4BF
:1002A0001DC18C3091050CF009C18930910509F40C
:1002B00057C30A970CF0B6C121E030E08091C0002E
:1002C000992796958795929582958F7089279F702B
:1002D0008927817090708217930781F781E380935B
:1002E000C60021E030E08091C0009927969587955F
:1002F000929582958F7089279F7089278170907061
:100300008217930781F720E32093C60021E030E0B5
:100310008091C000992796958795929582958F70C8
:1003200089279F708927817090708217930781F7C2
:1003300030E33093C60021E030E08091C00099277F
:1003400096958795929582958F7089279F708927BA
:10035000817090708217930781F780E39BCF21E033
:1003600030E08091C0009927969587959295829567
:100370008F7089279F7089278170907082179307EB
:1003800081F7B0E3B093C60021E030E08091C00077
:10039000992796958795929582958F7089279F705A
:1003A0008927817090708217930781F7E1E3E093CA
:1003B000C60021E030E08091C0009927969587958E
:1003C000929582958F7089279F7089278170907090
:1003D0008217930781F7F1E3F093C60021E030E044
:1003E0008091C000992796958795929582958F70F8
:1003F00089279F708927817090708217930781F7F2
:1004000081E38093C60008958530910509F4FAC20E
:1004100006970CF0ADC121E030E08091C000992733
:1004200096958795929582958F7089279F708927D9
:10043000817090708217930781F780E38093C600E4
:1004400021E030E08091C00099279695879592959C
:1004500082958F7089279F7089278170907082178D
:10046000930781F721E32093C60021E030E08091DB
:10047000C000992796958795929582958F708927C8
:100480009F708927817090708217930781F730E3FE
:100490003093C60021E030E08091C0009927969506
:1004A0008795929582958F7089279F708927817093
:1004B00090708217930781F780E3ECCE8D30910521
:1004C00009F4F2C28D3091050CF4FFC08E30910515
:1004D00009F440C30F9709F49EC1089521E030E06C
:1004E0008091C000992796958795929582958F70F7
:1004F00089279F708927817090708217930781F7F1
:10050000B1E3B093C60021E030E08091C0009927AC
:1005100096958795929582958F7089279F708927E8
:10052000817090708217930781F7E0E3E093C60033
:1005300021E030E08091C0009927969587959295AB
:1005400082958F7089279F7089278170907082179C
:10055000930781F7F1E3F093C60021E030E080914A
:10056000C000992796958795929582958F708927D7
:100570009F708927817090708217930781F740CF11
:1005800021E030E08091C00099279695879592955B
:1005900082958F7089279F7089278170907082174C
:1005A000930781F7B0E3B093C60021E030E080917B
:1005B000C000992796958795929582958F70892787
:1005C0009F708927817090708217930781F7E0E30D
:1005D000E093C60021E030E08091C0009927969515
:1005E0008795929582958F7089279F708927817052
:1005F00090708217930781F7F1E3F093C60021E032
:1006000030E08091C00099279695879592958295C4
:100610008F7089279F708927817090708217930748
:1006200081F7EECE21E030E08091C00099279695C9
:100630008795929582958F7089279F708927817001
:1006400090708217930781F771E37093C60021E0E1
:1006500030E08091C0009927969587959295829574
:100660008F7089279F7089278170907082179307F8
:1006700081F790E39093C60021E030E08091C000C4
:10068000992796958795929582958F7089279F7067
:100690008927817090708217930781F7A1E3A09357
:1006A000C60021E030E08091C0009927969587959B
:1006B000929582958F7089279F708927817090709D
:1006C0008217930781F780E3E5CD21E030E0809148
:1006D000C000992796958795929582958F70892766
:1006E0009F708927817090708217930781F781E34B
:1006F0008093C60021E030E08091C0009927969554
:100700008795929582958F7089279F708927817030
:1007100090708217930781F721E32093C60021E0B0
:1007200030E08091C00099279695879592958295A3
:100730008F7089279F708927817090708217930727
:1007400081F730E33093C60021E030E08091C000B3
:10075000992796958795929582958F7089279F7096
:100760008927817090708217930781F780E392CD7B
:1007700021E030E08091C000992796958795929569
:1007800082958F7089279F7089278170907082175A
:10079000930781F770E37093C60021E030E0809109
:1007A000C000992796958795929582958F70892795
:1007B0009F708927817090708217930781F791E36A
:1007C0009093C60021E030E08091C0009927969573
:1007D0008795929582958F7089279F708927817060
:1007E00090708217930781F7A1E3A093C60021E0E0
:1007F00030E08091C00099279695879592958295D3
:100800008F7089279F708927817090708217930756
:1008100081F780E33FCD21E030E08091C00099274F
:1008200096958795929582958F7089279F708927D5
:10083000817090708217930781F7B1E3B093C6007F
:1008400021E030E08091C000992796958795929598
:1008500082958F7089279F70892781709070821789
:10086000930781F7E1E3E093C60021E030E0809157
:10087000C000992796958795929582958F708927C4
:100880009F708927817090708217930781F7F1E339
:10089000F093C60021E030E08091C0009927969542
:1008A0008795929582958F7089279F70892781708F
:1008B00090708217930781F781E38093C6000895B3
:1008C0009C018091C0009927969587959295829575
:1008D0008F7089279F7089278227932780FDF1CF0A
:1008E00040E34093C60021E030E08091C0009927AA
:1008F00096958795929582958F7089279F70892705
:10090000817090708217930781F750E35093C6006F
:1009100021E030E08091C0009927969587959295C7
:1009200082958F7089279F708927817090708217B8
:10093000930781F760E36093C60021E030E0809187
:10094000C000992796958795929582958F708927F3
:100950009F708927817090708217930781F750CD1F
:1009600021E030E08091C000992796958795929577
:1009700082958F7089279F70892781709070821768
:10098000930781F741E34093C60021E030E0809176
:10099000C000992796958795929582958F708927A3
:1009A0009F708927817090708217930781F750E3B9
:1009B0005093C60021E030E08091C00099279695C1
:1009C0008795929582958F7089279F70892781706E
:1009D00090708217930781F760E36093C60021E06F
:1009E00030E08091C00099279695879592958295E1
:1009F0008F7089279F708927817090708217930765
:100A000081F7FECC21E030E08091C00099279695D7
:100A10008795929582958F7089279F70892781701D
:100A200090708217930781F740E34093C60021E05E
:100A300030E08091C0009927969587959295829590
:100A40008F7089279F708927817090708217930714
:100A500081F751E35093C60021E030E08091C0005F
:100A6000992796958795929582958F7089279F7083
:100A70008927817090708217930781F760E36093F4
:100A8000C60021E030E08091C000992796958795B7
:100A9000929582958F7089279F70892781709070B9
:100AA0008217930781F7ACCC21E030E08091C00041
:100AB000992796958795929582958F7089279F7033
:100AC0008927817090708217930781F741E34093E3
:100AD000C60021E030E08091C00099279695879567
:100AE000929582958F7089279F7089278170907069
:100AF0008217930781F751E35093C60021E030E05D
:100B00008091C000992796958795929582958F70D0
:100B100089279F708927817090708217930781F7CA
:100B200060E36093C60021E030E08091C000992727
:100B300096958795929582958F7089279F708927C2
:100B4000817090708217930781F75ACC892B09F432
:100B500054C0089521E030E08091C0009927969517
:100B60008795929582958F7089279F7089278170CC
:100B700090708217930781F771E37093C60021E0AC
:100B800030E08091C000992796958795929582953F
:100B90008F7089279F7089278170907082179307C3
:100BA00081F791E39093C60021E030E08091C0008E
:100BB000992796958795929582958F7089279F7032
:100BC0008927817090708217930781F7A1E3A09322
:100BD000C60021E030E08091C00099279695879566
:100BE000929582958F7089279F7089278170907068
:100BF0008217930781F780E34DCB21E030E08091AD
:100C0000C000992796958795929582958F70892730
:100C10009F708927817090708217930781F780E316
:100C20008093C60021E030E08091C000992796951E
:100C30008795929582958F7089279F7089278170FB
:100C400090708217930781F720E32093C60021E07C
:100C500030E08091C000992796958795929582956E
:100C60008F7089279F7089278170907082179307F2
:100C700081F730E33093C60021E030E08091C0007E
:100C8000992796958795929582958F7089279F7061
:100C90008927817090708217930781F780E3FACAE1
:100CA000CF93C82F21E030E08091C000992796951E
:100CB0008795929582958F7089279F70892781707B
:100CC00090708217930781F782E68093C6008C2F7D
:100CD00082958F700E94DF008C2F8F700E94DF0042
:100CE000CF91089599278730910509F44AC088303B
:100CF000910524F58330910509F49AC0843091055B
:100D00000CF055C08130910509F4FAC0823091058C
:100D10000CF444C121E030E08091C0009927969501
:100D20008795929582958F7089279F70892781700A
:100D300090708217930781F782E336C08B3091055C
:100D400009F460C08C3091050CF04CC089309105DD
:100D500009F4E8C00A970CF081C021E030E08091EE
:100D6000C000992796958795929582958F708927CF
:100D70009F708927817090708217930781F788E3AD
:100D800013C021E030E08091C000992796958795A7
:100D9000929582958F7089279F70892781709070B6
:100DA0008217930781F787E38093C6000895853003
:100DB000910509F4CBC006970CF078C021E030E033
:100DC0008091C000992796958795929582958F700E
:100DD00089279F708927817090708217930781F708
:100DE00084E3E2CF8D30910509F4C4C08D309105C4
:100DF0000CF448C08E30910509F4D3C00F9709F464
:100E000069C0089521E030E08091C000992796954F
:100E10008795929582958F7089279F708927817019
:100E200090708217930781F782E48093C60008953B
:100E300021E030E08091C0009927969587959295A2
:100E400082958F7089279F70892781709070821793
:100E5000930781F783E38093C600089521E030E093
:100E60008091C000992796958795929582958F706D
:100E700089279F708927817090708217930781F767
:100E800081E492CF21E030E08091C00099279695CF
:100E90008795929582958F7089279F708927817099
:100EA00090708217930781F783E47ECF21E030E0D2
:100EB0008091C000992796958795929582958F701D
:100EC00089279F708927817090708217930781F717
:100ED00086E36ACF21E030E08091C00099279695A3
:100EE0008795929582958F7089279F708927817049
:100EF00090708217930781F786E48093C600089567
:100F00009C018091C000992796958795929582952E
:100F10008F7089279F7089278227932780FDF1CFC3
:100F200081E342CF21E030E08091C000992796957F
:100F30008795929582958F7089279F7089278170F8
:100F400090708217930781F789E32ECF21E030E07C
:100F50008091C000992796958795929582958F707C
:100F600089279F708927817090708217930781F776
:100F700085E31ACF21E030E08091C0009927969553
:100F80008795929582958F7089279F7089278170A8
:100F900090708217930781F784E406CF892BA9F01C
:100FA000089521E030E08091C000992796958795BB
:100FB000929582958F7089279F7089278170907094
:100FC0008217930781F785E4EFCE21E030E080912E
:100FD000C000992796958795929582958F7089275D
:100FE0009F708927817090708217930781F780E343
:100FF000DBCE1F93182F82958F700E947206812F6F
:101000008F700E9472061F9108950F931F93182FDF
:10101000062F82958F700E947206812F8F700E941A
:101020007206802F82958F700E947206802F8F70BB
:101030000E9472061F910F910895EF92FF921F93E5
:101040007C01892F9927F82E82958F700E94720655
:101050008F2D8F700E9472068E2D82958F700E9448
:1010600072068E2D8F700E9472061F91FF90EF9076
:1010700008951092020110920101089590910201C9
:1010800080910101981738F08091020120910101AF
:10109000821B992708958091020130910101831BE1
:1010A000865099270895089530910201E32FFF2774
:1010B000ED5FFE4F8083209102012F5F209302019C
:1010C000809102018A3F10F0109202010895089564
:1010D000E0910101209101012F5F20930101809196
:1010E00001018A3F10F010920101FF27ED5FFE4FD2
:1010F000808199270895109202011092010125E440
:101100002093BC0081E68093BA001092BD00089540
:101110001F920F920FB60F9211242F933F934F936C
:101120005F936F937F938F939F93AF93BF93EF934F
:10113000FF938091B900803641F12091B9002037AA
:1011400021F13091B900303861F04091B900403957
:1011500041F05091B900583821F06091B9006839D8
:10116000A1F4A091BB00B0910201EB2FFF27ED5F2E
:10117000FE4FA083909102019F5F909302017091B6
:1011800002017A3F10F010920201F5ECF093BC00DE
:10119000FF91EF91BF91AF919F918F917F916F914F
:1011A0005F914F913F912F910F900FBE0F901F9025
:1011B0001895219A559A569A089599278230910543
:1011C00069F0833091051CF4019751F0089503975D
:1011D000E9F785B190E4892785B908952E98089597
:1011E0002E9A0895089599278230910569F08330E9
:1011F00091051CF4019751F008950397E9F78BB11D
:1012000091E089278BB9089558980895589A0895C0
:10121000089599278230910569F0833091051CF477
:10122000019751F008950397E9F78BB192E0892770
:0E1230008BB9089559980895599A0895089514
:00000001FF
