:100000000C9434000C944F000C944F000C944F004F
:100010000C944F000C944F000C944F000C944F0024
:100020000C944F000C944F000C944F000C944F0014
:100030000C944F000C944F000C944F000C944F0004
:100040000C944F000C944F000C944F000C944F00F4
:100050000C944F000C944F000C944F000C944F00E4
:100060000C944F000C944F0011241FBECFEFD4E02E
:10007000DEBFCDBF11E0A0E0B1E0EAE5F4E102C0EF
:1000800005900D92A030B107D9F711E0A0E0B1E0E2
:1000900001C01D92A331B107E1F70C9476000C94D6
:1000A0000000219A26E924B92D9A8AEF8AB95A9A32
:1000B00008951092800039E0309381001092820000
:1000C00023E02093890080E880938800089540E031
:1000D00050E0009721F09C0121503040E9F74F5F3C
:1000E0005F4F2FEF4F3F5207A1F70895CFEFD4E0B6
:1000F000DEBFCDBFF8940E94E709219A56E954B9B2
:100100002D9A4AEF4AB95A9A0E94E6000E94F400DA
:100110008DE00E944C021092800039E03093810003
:100120001092820023E02093890080E88093880069
:1001300082E00E94EB09B19AC0E080E090E0019675
:100140002FEF8F3F9207D9F789B181E00E94170AFC
:100150000E94F70080E00E940B0180E00E943601BF
:1001600081E00E94360182E00E94360183E00E9415
:10017000360184E00E94360185E00E94360186E067
:100180000E943601CF5FC13128F04A9B03C0C0E016
:100190000E94F90182E00E94170A21E030E086B354
:1001A0009927969587958170907082179307B9F774
:1001B000B19ACBCF662321F0FC0141936150E9F75E
:1001C000089510920401109203010895E5E0F1E012
:1001D00086E01192815087FFFCCF109204011092AB
:1001E0000301109202010895209817B8089583B171
:1001F0009927002496958795079496958795079457
:10020000982F802D26B1282B2093010108958091ED
:10021000010199270895809301010895282F8430C2
:1002200080F4862F99273327220F331F02C0880FAF
:10023000991F2A95E2F720910301282B20930301AF
:100240000895873088F4862F99273327220F331F8C
:100250002850304002C0880F991F2A95E2F730914C
:100260000401382B3093040108950895582FA82FC6
:10027000BB2761E070E0CB010A2E02C0880F991FF6
:100280000A94E2F7409101014823FD01EB5FFE4F24
:100290008081282F33272617370751F062177307FD
:1002A0008CF52230310579F0AB5FBE4F1C9208957A
:1002B000442329F1FD01E45FFE4F80818F3FB9F3B4
:1002C0008F5F80830895FD01E45FFE4FE0814E2F34
:1002D0004450423008F5543008F44BC05730A8F56C
:1002E000CD018A0F9B1F089702C0220F331F8A95EA
:1002F000E2F780910401822B8093040126C082E002
:1003000080830895232B81F6442389F2A45FBE4F96
:1003100081E08C93808308952E2F26502230C8F0E0
:10032000E250E23090F4543008F042C083E090E0B4
:100330009D012A0F3B1F02C0880F991F2A95E2F7E3
:1003400030910301382B30930301AB5FBE4F1C92F9
:1003500008955430E0F4CD018A0F9B1F02C0660F50
:10036000771F8A95E2F780910301862B8093030122
:10037000ECCFCD018A0F9B1F02C0220F331F8A953D
:10038000E2F780910301822B80930301DECF573087
:10039000E0F6CD018A0F9B1F089702C0660F771FFA
:1003A0008A95E2F780910401862B80930401CDCFDA
:1003B000573058F683E090E09D012A0F3B1F2850EC
:1003C000304002C0880F991F2A95E2F7509104012E
:1003D000582B50930401B9CF809104010E948A02E6
:1003E000809103010E948A0210920401109203017D
:1003F0000895209100012F5F822F99278530910564
:1004000041F1863091058CF08730910511F18730EC
:100410009105B4F08830910599F0099769F12B3F67
:1004200040F188EC8093000132C08230910589F060
:1004300083309105ACF08330910511F0049779F782
:10044000209300018AEA0E9474028AEA0E947402E0
:100450001EC02093000185E50E94740285E5F6CF59
:100460000197E9F6209300018FEF0E9474028FEF4D
:10047000EDCF209300010BC02093000185E50E9481
:10048000740285E50E94740281E00E94EB091092DB
:1004900004011092030108958D3081F01092C00084
:1004A00046E44093C2001092C50034E43093C40087
:1004B000519A549A58E05093C100089522E0209335
:1004C000C00086E08093C2001092C5001092C40064
:1004D000519A549A58E05093C1000895089580931A
:1004E000C6006093C6000895482F21E030E0809157
:1004F000C000992796958795929582958F70892748
:100500009F708927817090708217930781F74093BD
:10051000C60008958093C6000895992787309105F5
:1005200009F4CBC0883091050CF065C0833091058B
:1005300009F4D4C1843091050CF014C181309105C7
:1005400009F46CC3823091050CF4AEC421E030E0B4
:100550008091C000992796958795929582958F7086
:1005600089279F708927817090708217930781F780
:1005700070E37093C60021E030E08091C0009927BD
:1005800096958795929582958F7089279F70892778
:10059000817090708217930781F790E39093C60063
:1005A00021E030E08091C00099279695879592953B
:1005B00082958F7089279F7089278170907082172C
:1005C000930781F7A1E3A093C60021E030E080917A
:1005D000C000992796958795929582958F70892767
:1005E0009F708927817090708217930781F780E34D
:1005F0008093C60008958B30910509F41DC18C309D
:1006000091050CF009C18930910509F457C30A9787
:100610000CF0B6C121E030E08091C000992796959A
:100620008795929582958F7089279F708927817011
:1006300090708217930781F781E38093C60021E0D1
:1006400030E08091C0009927969587959295829584
:100650008F7089279F708927817090708217930708
:1006600081F720E32093C60021E030E08091C000B4
:10067000992796958795929582958F7089279F7077
:100680008927817090708217930781F730E3309348
:10069000C60021E030E08091C000992796958795AB
:1006A000929582958F7089279F70892781709070AD
:1006B0008217930781F780E39BCF21E030E08091A0
:1006C000C000992796958795929582958F70892776
:1006D0009F708927817090708217930781F7B0E32C
:1006E000B093C60021E030E08091C0009927969534
:1006F0008795929582958F7089279F708927817041
:1007000090708217930781F7E1E3E093C60021E040
:1007100030E08091C00099279695879592958295B3
:100720008F7089279F708927817090708217930737
:1007300081F7F1E3F093C60021E030E08091C00042
:10074000992796958795929582958F7089279F70A6
:100750008927817090708217930781F781E38093D6
:10076000C60008958530910509F4FAC206970CF089
:10077000ADC121E030E08091C00099279695879522
:10078000929582958F7089279F70892781709070CC
:100790008217930781F780E38093C60021E030E061
:1007A0008091C000992796958795929582958F7034
:1007B00089279F708927817090708217930781F72E
:1007C00021E32093C60021E030E08091C00099270A
:1007D00096958795929582958F7089279F70892726
:1007E000817090708217930781F730E33093C600D1
:1007F00021E030E08091C0009927969587959295E9
:1008000082958F7089279F708927817090708217D9
:10081000930781F780E3ECCE8D30910509F4F2C2A5
:100820008D3091050CF4FFC08E30910509F440C362
:100830000F9709F49EC1089521E030E08091C00037
:10084000992796958795929582958F7089279F70A5
:100850008927817090708217930781F7B1E3B09375
:10086000C60021E030E08091C000992796958795D9
:10087000929582958F7089279F70892781709070DB
:100880008217930781F7E0E3E093C60021E030E0B0
:100890008091C000992796958795929582958F7043
:1008A00089279F708927817090708217930781F73D
:1008B000F1E3F093C60021E030E08091C000992779
:1008C00096958795929582958F7089279F70892735
:1008D000817090708217930781F740CF21E030E05C
:1008E0008091C000992796958795929582958F70F3
:1008F00089279F708927817090708217930781F7ED
:10090000B0E3B093C60021E030E08091C0009927A9
:1009100096958795929582958F7089279F708927E4
:10092000817090708217930781F7E0E3E093C6002F
:1009300021E030E08091C0009927969587959295A7
:1009400082958F7089279F70892781709070821798
:10095000930781F7F1E3F093C60021E030E0809146
:10096000C000992796958795929582958F708927D3
:100970009F708927817090708217930781F7EECE60
:1009800021E030E08091C000992796958795929557
:1009900082958F7089279F70892781709070821748
:1009A000930781F771E37093C60021E030E08091F6
:1009B000C000992796958795929582958F70892783
:1009C0009F708927817090708217930781F790E359
:1009D0009093C60021E030E08091C0009927969561
:1009E0008795929582958F7089279F70892781704E
:1009F00090708217930781F7A1E3A093C60021E0CE
:100A000030E08091C00099279695879592958295C0
:100A10008F7089279F708927817090708217930744
:100A200081F780E3E5CD21E030E08091C000992797
:100A300096958795929582958F7089279F708927C3
:100A4000817090708217930781F781E38093C600CD
:100A500021E030E08091C000992796958795929586
:100A600082958F7089279F70892781709070821777
:100A7000930781F721E32093C60021E030E08091C5
:100A8000C000992796958795929582958F708927B2
:100A90009F708927817090708217930781F730E3E8
:100AA0003093C60021E030E08091C00099279695F0
:100AB0008795929582958F7089279F70892781707D
:100AC00090708217930781F780E392CD21E030E0A8
:100AD0008091C000992796958795929582958F7001
:100AE00089279F708927817090708217930781F7FB
:100AF00070E37093C60021E030E08091C000992738
:100B000096958795929582958F7089279F708927F2
:100B1000817090708217930781F791E39093C600DC
:100B200021E030E08091C0009927969587959295B5
:100B300082958F7089279F708927817090708217A6
:100B4000930781F7A1E3A093C60021E030E08091F4
:100B5000C000992796958795929582958F708927E1
:100B60009F708927817090708217930781F780E3C7
:100B70003FCD21E030E08091C00099279695879580
:100B8000929582958F7089279F70892781709070C8
:100B90008217930781F7B1E3B093C60021E030E0FC
:100BA0008091C000992796958795929582958F7030
:100BB00089279F708927817090708217930781F72A
:100BC000E1E3E093C60021E030E08091C000992786
:100BD00096958795929582958F7089279F70892722
:100BE000817090708217930781F7F1E3F093C6004C
:100BF00021E030E08091C0009927969587959295E5
:100C000082958F7089279F708927817090708217D5
:100C1000930781F781E38093C60008959C0180913A
:100C2000C000992796958795929582958F70892710
:100C30009F7089278227932780FDF1CF40E340935F
:100C4000C60021E030E08091C000992796958795F5
:100C5000929582958F7089279F70892781709070F7
:100C60008217930781F750E35093C60021E030E0EC
:100C70008091C000992796958795929582958F705F
:100C800089279F708927817090708217930781F759
:100C900060E36093C60021E030E08091C0009927B6
:100CA00096958795929582958F7089279F70892751
:100CB000817090708217930781F750CD21E030E06A
:100CC0008091C000992796958795929582958F700F
:100CD00089279F708927817090708217930781F709
:100CE00041E34093C60021E030E08091C0009927A5
:100CF00096958795929582958F7089279F70892701
:100D0000817090708217930781F750E35093C6006B
:100D100021E030E08091C0009927969587959295C3
:100D200082958F7089279F708927817090708217B4
:100D3000930781F760E36093C60021E030E0809183
:100D4000C000992796958795929582958F708927EF
:100D50009F708927817090708217930781F7FECC6E
:100D600021E030E08091C000992796958795929573
:100D700082958F7089279F70892781709070821764
:100D8000930781F740E34093C60021E030E0809173
:100D9000C000992796958795929582958F7089279F
:100DA0009F708927817090708217930781F751E3B4
:100DB0005093C60021E030E08091C00099279695BD
:100DC0008795929582958F7089279F70892781706A
:100DD00090708217930781F760E36093C60021E06B
:100DE00030E08091C00099279695879592958295DD
:100DF0008F7089279F708927817090708217930761
:100E000081F7ACCC21E030E08091C0009927969525
:100E10008795929582958F7089279F708927817019
:100E200090708217930781F741E34093C60021E059
:100E300030E08091C000992796958795929582958C
:100E40008F7089279F708927817090708217930710
:100E500081F751E35093C60021E030E08091C0005B
:100E6000992796958795929582958F7089279F707F
:100E70008927817090708217930781F760E36093F0
:100E8000C60021E030E08091C000992796958795B3
:100E9000929582958F7089279F70892781709070B5
:100EA0008217930781F75ACC892B09F454C008950F
:100EB00021E030E08091C000992796958795929522
:100EC00082958F7089279F70892781709070821713
:100ED000930781F771E37093C60021E030E08091C1
:100EE000C000992796958795929582958F7089274E
:100EF0009F708927817090708217930781F791E323
:100F00009093C60021E030E08091C000992796952B
:100F10008795929582958F7089279F708927817018
:100F200090708217930781F7A1E3A093C60021E098
:100F300030E08091C000992796958795929582958B
:100F40008F7089279F70892781709070821793070F
:100F500081F780E34DCB21E030E08091C0009927FC
:100F600096958795929582958F7089279F7089278E
:100F7000817090708217930781F780E38093C60099
:100F800021E030E08091C000992796958795929551
:100F900082958F7089279F70892781709070821742
:100FA000930781F720E32093C60021E030E0809191
:100FB000C000992796958795929582958F7089277D
:100FC0009F708927817090708217930781F730E3B3
:100FD0003093C60021E030E08091C00099279695BB
:100FE0008795929582958F7089279F708927817048
:100FF00090708217930781F780E3FACACF93C82FC6
:1010000021E030E08091C0009927969587959295D0
:1010100082958F7089279F708927817090708217C1
:10102000930781F782E68093C6008C2F82958F709C
:101030000E948D028C2F8F700E948D02CF91089597
:1010400099278730910509F44AC08830910524F525
:101050008330910509F49AC0843091050CF055C095
:101060008130910509F4FAC0823091050CF444C135
:1010700021E030E08091C000992796958795929560
:1010800082958F7089279F70892781709070821751
:10109000930781F782E336C08B30910509F460C075
:1010A0008C3091050CF04CC08930910509F4E8C0F2
:1010B0000A970CF081C021E030E08091C0009927B0
:1010C00096958795929582958F7089279F7089272D
:1010D000817090708217930781F788E313C021E035
:1010E00030E08091C00099279695879592958295DA
:1010F0008F7089279F70892781709070821793075E
:1011000081F787E38093C60008958530910509F43F
:10111000CBC006970CF078C021E030E08091C00091
:10112000992796958795929582958F7089279F70BC
:101130008927817090708217930781F784E3E2CF4B
:101140008D30910509F4C4C08D3091050CF448C070
:101150008E30910509F4D3C00F9709F469C0089542
:1011600021E030E08091C00099279695879592956F
:1011700082958F7089279F70892781709070821760
:10118000930781F782E48093C600089521E030E060
:101190008091C000992796958795929582958F703A
:1011A00089279F708927817090708217930781F734
:1011B00083E38093C600089521E030E08091C00071
:1011C000992796958795929582958F7089279F701C
:1011D0008927817090708217930781F781E492CFFD
:1011E00021E030E08091C0009927969587959295EF
:1011F00082958F7089279F708927817090708217E0
:10120000930781F783E47ECF21E030E08091C00036
:10121000992796958795929582958F7089279F70CB
:101220008927817090708217930781F786E36ACFD0
:1012300021E030E08091C00099279695879592959E
:1012400082958F7089279F7089278170907082178F
:10125000930781F786E48093C60008959C018091EE
:10126000C000992796958795929582958F708927CA
:101270009F7089278227932780FDF1CF81E342CF9A
:1012800021E030E08091C00099279695879592954E
:1012900082958F7089279F7089278170907082173F
:1012A000930781F789E32ECF21E030E08091C000E1
:1012B000992796958795929582958F7089279F702B
:1012C0008927817090708217930781F785E31ACF81
:1012D00021E030E08091C0009927969587959295FE
:1012E00082958F7089279F708927817090708217EF
:1012F000930781F784E406CF892BA9F0089521E0B4
:1013000030E08091C00099279695879592958295B7
:101310008F7089279F70892781709070821793073B
:1013200081F785E4EFCE21E030E08091C00099277D
:1013300096958795929582958F7089279F708927BA
:10134000817090708217930781F780E3DBCE1F9343
:10135000182F82958F700E942008812F8F700E9415
:1013600020081F9108950F931F93182F062F829521
:101370008F700E942008812F8F700E942008802F7C
:1013800082958F700E942008802F8F700E94200805
:101390001F910F910895EF92FF921F937C01892F67
:1013A0009927F82E82958F700E9420088F2D8F70BC
:1013B0000E9420088E2D82958F700E9420088E2D0D
:1013C0008F700E9420081F91FF90EF900895219A3E
:1013D000559A569A089599278230910569F083307D
:1013E00091051CF4019751F008950397E9F785B131
:1013F00092E0892785B9089529980895299A089532
:10140000089599278230910569F0833091051CF485
:10141000019751F008950397E9F78BB190E289277E
:101420008BB908955D9808955D9A08950895992758
:101430008230910569F0833091051CF4019751F0D9
:1014400008950397E9F78BB190E489278BB9089544
:0A1450005E9808955E9A08950895CD
:00000001FF
